{
  "contractName": "Casino",
  "abi": [
    {
      "inputs": [
        {
          "internalType": "address",
          "name": "_ruletaAddress",
          "type": "address"
        },
        {
          "internalType": "address",
          "name": "_dadosAddress",
          "type": "address"
        }
      ],
      "stateMutability": "payable",
      "type": "constructor"
    },
    {
      "inputs": [],
      "name": "crapsContract",
      "outputs": [
        {
          "internalType": "contract Dados",
          "name": "",
          "type": "address"
        }
      ],
      "stateMutability": "view",
      "type": "function"
    },
    {
      "inputs": [],
      "name": "manager",
      "outputs": [
        {
          "internalType": "address",
          "name": "",
          "type": "address"
        }
      ],
      "stateMutability": "view",
      "type": "function"
    },
    {
      "inputs": [],
      "name": "ruletaContract",
      "outputs": [
        {
          "internalType": "contract Ruleta",
          "name": "",
          "type": "address"
        }
      ],
      "stateMutability": "view",
      "type": "function"
    },
    {
      "inputs": [
        {
          "internalType": "uint8",
          "name": "num",
          "type": "uint8"
        }
      ],
      "name": "apostarNumeroEnRuleta",
      "outputs": [],
      "stateMutability": "payable",
      "type": "function"
    },
    {
      "inputs": [
        {
          "internalType": "string",
          "name": "col",
          "type": "string"
        }
      ],
      "name": "apostarColorEnRuleta",
      "outputs": [],
      "stateMutability": "payable",
      "type": "function"
    },
    {
      "inputs": [
        {
          "internalType": "string",
          "name": "par",
          "type": "string"
        }
      ],
      "name": "apostarParOImparRuleta",
      "outputs": [],
      "stateMutability": "payable",
      "type": "function"
    },
    {
      "inputs": [],
      "name": "obtenerApuestasJug",
      "outputs": [
        {
          "internalType": "uint256[]",
          "name": "numbers",
          "type": "uint256[]"
        },
        {
          "internalType": "uint256[]",
          "name": "cantidadesNumeros",
          "type": "uint256[]"
        },
        {
          "internalType": "string[]",
          "name": "colores",
          "type": "string[]"
        },
        {
          "internalType": "uint256[]",
          "name": "cantidadesColores",
          "type": "uint256[]"
        },
        {
          "internalType": "string[]",
          "name": "paridades",
          "type": "string[]"
        },
        {
          "internalType": "uint256[]",
          "name": "cantidadesParidades",
          "type": "uint256[]"
        }
      ],
      "stateMutability": "view",
      "type": "function"
    },
    {
      "inputs": [],
      "name": "lanzarBolaRuleta",
      "outputs": [
        {
          "internalType": "uint256",
          "name": "",
          "type": "uint256"
        },
        {
          "internalType": "string",
          "name": "",
          "type": "string"
        },
        {
          "internalType": "string",
          "name": "",
          "type": "string"
        }
      ],
      "stateMutability": "nonpayable",
      "type": "function"
    },
    {
      "inputs": [],
      "name": "lanzarDadosCraps",
      "outputs": [],
      "stateMutability": "nonpayable",
      "type": "function"
    },
    {
      "inputs": [],
      "name": "apostarPassLine",
      "outputs": [],
      "stateMutability": "payable",
      "type": "function"
    },
    {
      "inputs": [],
      "name": "apostarDontPassLine",
      "outputs": [],
      "stateMutability": "payable",
      "type": "function"
    },
    {
      "inputs": [],
      "name": "apostarCome",
      "outputs": [],
      "stateMutability": "payable",
      "type": "function"
    },
    {
      "inputs": [],
      "name": "apostarDontCome",
      "outputs": [],
      "stateMutability": "payable",
      "type": "function"
    },
    {
      "inputs": [],
      "name": "apostarField",
      "outputs": [],
      "stateMutability": "payable",
      "type": "function"
    },
    {
      "inputs": [],
      "name": "obtenerApuestasJugadorCraps",
      "outputs": [
        {
          "internalType": "enum PassOrNotPass[]",
          "name": "",
          "type": "uint8[]"
        },
        {
          "internalType": "uint256[]",
          "name": "",
          "type": "uint256[]"
        }
      ],
      "stateMutability": "view",
      "type": "function"
    }
  ],
  "bytecode": "0x60806040526040516110823803806110828339810160408190526100229161007a565b600280546001600160a01b03199081163317909155600080546001600160a01b03948516908316179055600180549290931691161790556100ad565b80516001600160a01b038116811461007557600080fd5b919050565b6000806040838503121561008d57600080fd5b6100968361005e565b91506100a46020840161005e565b90509250929050565b610fc6806100bc6000396000f3fe6080604052600436106100e85760003560e01c80634b530b4b1161008a578063ba464f5811610059578063ba464f5814610206578063c02e67bd14610226578063c5cd16fb14610239578063f0f6bdf11461024c57600080fd5b80634b530b4b146101c3578063665da035146101d6578063754c6ace146101de578063758f5dcc146101fe57600080fd5b8063378c8768116100c6578063378c876814610158578063415d904714610160578063481c6a75146101685780634b02d4d6146101a057600080fd5b80630688a948146100ed5780630c6f8f5b146101045780633274b52514610131575b600080fd5b3480156100f957600080fd5b50610102610254565b005b34801561011057600080fd5b506101196102e6565b604051610128939291906108d6565b60405180910390f35b34801561013d57600080fd5b506101466103d5565b604051610128969594939291906109a1565b61010261048f565b61010261051b565b34801561017457600080fd5b50600254610188906001600160a01b031681565b6040516001600160a01b039091168152602001610128565b3480156101ac57600080fd5b506101b5610577565b604051610128929190610a23565b6101026101d1366004610afe565b61061c565b6101026106af565b3480156101ea57600080fd5b50600154610188906001600160a01b031681565b61010261070b565b34801561021257600080fd5b50600054610188906001600160a01b031681565b610102610234366004610b7e565b610767565b610102610247366004610afe565b6107cc565b61010261082a565b6002546001600160a01b031633036102875760405162461bcd60e51b815260040161027e90610ba8565b60405180910390fd5b600154604051631c53d72160e31b81523360048201526001600160a01b039091169063e29eb90890602401600060405180830381600087803b1580156102cc57600080fd5b505af11580156102e0573d6000803e3d6000fd5b50505050565b60025460009060609081906001600160a01b0316331461035c5760405162461bcd60e51b815260206004820152602b60248201527f536f6c6f20656c206d616e61676572207075656465206c6c616d61722061206560448201526a39ba3090333ab731b4b7b760a91b606482015260840161027e565b60008054604080516307ea3f5b60e21b815290516001600160a01b0390921692631fa8fd6c92600480840193829003018183875af11580156103a2573d6000803e3d6000fd5b505050506040513d6000823e601f3d908101601f191682016040526103ca9190810190610c2c565b925092509250909192565b600254606090819081908190819081906001600160a01b0316330361040c5760405162461bcd60e51b815260040161027e90610ba8565b600054604051631fa786f960e31b81523360048201526001600160a01b039091169063fd3c37c890602401600060405180830381865afa158015610454573d6000803e3d6000fd5b505050506040513d6000823e601f3d908101601f1916820160405261047c9190810190610da7565b949b939a50919850965094509092509050565b6002546001600160a01b031633036104b95760405162461bcd60e51b815260040161027e90610ba8565b600154604051630caa44cb60e41b81523360048201526001600160a01b039091169063caa44cb09034906024015b6000604051808303818588803b15801561050057600080fd5b505af1158015610514573d6000803e3d6000fd5b5050505050565b6002546001600160a01b031633036105455760405162461bcd60e51b815260040161027e90610ba8565b60015460405163456e08a560e11b81523360048201526001600160a01b0390911690638adc114a9034906024016104e7565b60025460609081906001600160a01b031633036105a65760405162461bcd60e51b815260040161027e90610ba8565b6001546040516239f11960e01b81523360048201526001600160a01b03909116906239f11990602401600060405180830381865afa1580156105ec573d6000803e3d6000fd5b505050506040513d6000823e601f3d908101601f191682016040526106149190810190610e9c565b915091509091565b6002546001600160a01b031633036106465760405162461bcd60e51b815260040161027e90610ba8565b600054604051632001a9e560e01b81526001600160a01b0390911690632001a9e590349061067a9085903390600401610f66565b6000604051808303818588803b15801561069357600080fd5b505af11580156106a7573d6000803e3d6000fd5b505050505050565b6002546001600160a01b031633036106d95760405162461bcd60e51b815260040161027e90610ba8565b600154604051633ca1bca360e11b81523360048201526001600160a01b039091169063794379469034906024016104e7565b6002546001600160a01b031633036107355760405162461bcd60e51b815260040161027e90610ba8565b600154604051632132d2bb60e21b81523360048201526001600160a01b03909116906384cb4aec9034906024016104e7565b6002546001600160a01b031633036107915760405162461bcd60e51b815260040161027e90610ba8565b60005460405163bc28d39560e01b815260ff831660048201523360248201526001600160a01b039091169063bc28d39590349060440161067a565b6002546001600160a01b031633036107f65760405162461bcd60e51b815260040161027e90610ba8565b600054604051630372c82160e21b81526001600160a01b0390911690630dcb208490349061067a9085903390600401610f66565b6002546001600160a01b031633036108545760405162461bcd60e51b815260040161027e90610ba8565b6001546040516333ee25d360e11b81523360048201526001600160a01b03909116906367dc4ba69034906024016104e7565b60005b838110156108a1578181015183820152602001610889565b50506000910152565b600081518084526108c2816020860160208601610886565b601f01601f19169290920160200192915050565b8381526060602082015260006108ef60608301856108aa565b828103604084015261090181856108aa565b9695505050505050565b60008151808452602080850194506020840160005b8381101561093c57815187529582019590820190600101610920565b509495945050505050565b60008282518085526020808601955060208260051b8401016020860160005b8481101561099457601f198684030189526109828383516108aa565b98840198925090830190600101610966565b5090979650505050505050565b60c0815260006109b460c083018961090b565b82810360208401526109c6818961090b565b905082810360408401526109da8188610947565b905082810360608401526109ee818761090b565b90508281036080840152610a028186610947565b905082810360a0840152610a16818561090b565b9998505050505050505050565b60408082528351908201819052600090602090606084019082870184805b83811015610a7957825160058110610a6757634e487b7160e01b83526021600452602483fd5b85529385019391850191600101610a41565b505050508381036020850152610901818661090b565b634e487b7160e01b600052604160045260246000fd5b604051601f8201601f1916810167ffffffffffffffff81118282101715610ace57610ace610a8f565b604052919050565b600067ffffffffffffffff821115610af057610af0610a8f565b50601f01601f191660200190565b600060208284031215610b1057600080fd5b813567ffffffffffffffff811115610b2757600080fd5b8201601f81018413610b3857600080fd5b8035610b4b610b4682610ad6565b610aa5565b818152856020838501011115610b6057600080fd5b81602084016020830137600091810160200191909152949350505050565b600060208284031215610b9057600080fd5b813560ff81168114610ba157600080fd5b9392505050565b6020808252601b908201527f456c206d616e61676572206e6f2070756564652061706f737461720000000000604082015260600190565b600082601f830112610bf057600080fd5b8151610bfe610b4682610ad6565b818152846020838601011115610c1357600080fd5b610c24826020830160208701610886565b949350505050565b600080600060608486031215610c4157600080fd5b83519250602084015167ffffffffffffffff80821115610c6057600080fd5b610c6c87838801610bdf565b93506040860151915080821115610c8257600080fd5b50610c8f86828701610bdf565b9150509250925092565b600067ffffffffffffffff821115610cb357610cb3610a8f565b5060051b60200190565b600082601f830112610cce57600080fd5b81516020610cde610b4683610c99565b8083825260208201915060208460051b870101935086841115610d0057600080fd5b602086015b84811015610d1c5780518352918301918301610d05565b509695505050505050565b600082601f830112610d3857600080fd5b81516020610d48610b4683610c99565b82815260059290921b84018101918181019086841115610d6757600080fd5b8286015b84811015610d1c57805167ffffffffffffffff811115610d8b5760008081fd5b610d998986838b0101610bdf565b845250918301918301610d6b565b60008060008060008060c08789031215610dc057600080fd5b865167ffffffffffffffff80821115610dd857600080fd5b610de48a838b01610cbd565b97506020890151915080821115610dfa57600080fd5b610e068a838b01610cbd565b96506040890151915080821115610e1c57600080fd5b610e288a838b01610d27565b95506060890151915080821115610e3e57600080fd5b610e4a8a838b01610cbd565b94506080890151915080821115610e6057600080fd5b610e6c8a838b01610d27565b935060a0890151915080821115610e8257600080fd5b50610e8f89828a01610cbd565b9150509295509295509295565b60008060408385031215610eaf57600080fd5b825167ffffffffffffffff80821115610ec757600080fd5b818501915085601f830112610edb57600080fd5b81516020610eeb610b4683610c99565b828152600592831b850182019282820191908a851115610f0a57600080fd5b958301955b84871015610f35578651818110610f265760008081fd5b83529583019591830191610f0f565b5091880151919650909350505080821115610f4f57600080fd5b50610f5c85828601610cbd565b9150509250929050565b604081526000610f7960408301856108aa565b905060018060a01b0383166020830152939250505056fea264697066735822122067fd873328996511cab7ba9eb468d6083f2adb58b0a762dbf0110fa42b6fdc7f64736f6c63430008170033",
  "immutableReferences": {},
  "source": "// SPDX-License-Identifier: GPL-3.0\r\n\r\npragma solidity >=0.8.2 <0.9.0;\r\n\r\nimport \"./Ruleta.sol\";\r\nimport \"./Dados.sol\";\r\nimport \"./Tipos.sol\";\r\n\r\ncontract Casino{\r\n    Ruleta public ruletaContract;\r\n    Dados public crapsContract;\r\n    address public manager;\r\n\r\n    modifier onlyManager() {\r\n        require(msg.sender == manager, \"Solo el manager puede llamar a esta funcion\");\r\n        _;\r\n    }\r\n\r\n    modifier notManager(){\r\n        require(msg.sender != manager, \"El manager no puede apostar\");\r\n        _;\r\n    }\r\n\r\n    constructor(address _ruletaAddress, address _dadosAddress) payable{\r\n        manager = msg.sender;\r\n        //Inicializar instancias de los contratos\r\n        ruletaContract = Ruleta(_ruletaAddress);\r\n        crapsContract =  Dados(_dadosAddress);\r\n    }\r\n\r\n    function apostarNumeroEnRuleta(uint8 num) public notManager payable{\r\n    // Llamamos a la funcin apuestaNumero del contrato Ruleta con la direccin del jugador\r\n    ruletaContract.apuestaNumero{value: msg.value}(num, msg.sender);\r\n    }\r\n\r\n    function apostarColorEnRuleta(string memory col) public notManager payable{\r\n        ruletaContract.apuestaColor{value: msg.value}(col, msg.sender);\r\n    }\r\n\r\n    function apostarParOImparRuleta(string memory par) public notManager payable{\r\n        ruletaContract.apuestaPar{value: msg.value}(par, msg.sender);\r\n    }\r\n\r\n    function obtenerApuestasJug() public view notManager returns (    \r\n        uint256[] memory numbers,\r\n        uint[] memory cantidadesNumeros,\r\n        string[] memory colores,\r\n        uint[] memory cantidadesColores,\r\n        string[] memory paridades,\r\n        uint[] memory cantidadesParidades) {\r\n        return ruletaContract.obtenerApuestasJugador(msg.sender);\r\n    }\r\n\r\n    function lanzarBolaRuleta() public onlyManager returns (uint256, string memory, string memory){\r\n        return ruletaContract.girarRuleta();\r\n    }\r\n\r\n    //Funciones relacionadas con Craps\r\n    function lanzarDadosCraps() public notManager {\r\n        crapsContract.lanzarDados(msg.sender);\r\n    }\r\n\r\n    function apostarPassLine() public notManager payable{\r\n        crapsContract.passLine{value: msg.value}(msg.sender);\r\n    }\r\n\r\n    function apostarDontPassLine() public notManager payable{\r\n        crapsContract.notPassLine{value: msg.value}(msg.sender);\r\n    }\r\n\r\n    function apostarCome() public notManager payable{\r\n        crapsContract.comeBet{value: msg.value}(msg.sender);\r\n    }\r\n\r\n    function apostarDontCome() public notManager payable{\r\n        crapsContract.dontComeBet{value: msg.value}(msg.sender);\r\n    }\r\n\r\n    function apostarField() public notManager payable {\r\n        crapsContract.fieldBet{value: msg.value}(msg.sender);\r\n    }\r\n\r\n    function obtenerApuestasJugadorCraps() public view notManager returns (PassOrNotPass[] memory, uint256[] memory){\r\n        return crapsContract.obtenerInfoApuesta(msg.sender);\r\n    }\r\n\r\n}",
  "sourcePath": "C:\\Users\\Ignacio Gonzalez\\dapp-casino\\smartContracts\\contracts\\Casino.sol",
  "compiler": {
    "name": "solc",
    "version": "0.8.23+commit.f704f362.Emscripten.clang"
  },
  "schemaVersion": "3.4.16",
  "updatedAt": "2023-12-03T14:07:13.645Z",
  "devdoc": {
    "kind": "dev",
    "methods": {},
    "version": 1
  },
  "userdoc": {
    "kind": "user",
    "methods": {},
    "version": 1
  }
}