{
  "contractName": "Dados",
  "abi": [
    {
      "inputs": [],
      "stateMutability": "payable",
      "type": "constructor"
    },
    {
      "anonymous": false,
      "inputs": [
        {
          "indexed": false,
          "internalType": "string",
          "name": "info",
          "type": "string"
        },
        {
          "indexed": false,
          "internalType": "address",
          "name": "jugador",
          "type": "address"
        },
        {
          "indexed": false,
          "internalType": "uint256",
          "name": "cantidad",
          "type": "uint256"
        }
      ],
      "name": "apuestaSucces",
      "type": "event"
    },
    {
      "anonymous": false,
      "inputs": [
        {
          "indexed": false,
          "internalType": "string",
          "name": "craps",
          "type": "string"
        }
      ],
      "name": "craps",
      "type": "event"
    },
    {
      "anonymous": false,
      "inputs": [
        {
          "indexed": false,
          "internalType": "string",
          "name": "s",
          "type": "string"
        },
        {
          "indexed": false,
          "internalType": "uint256",
          "name": "punto",
          "type": "uint256"
        }
      ],
      "name": "nuevoPunto",
      "type": "event"
    },
    {
      "anonymous": false,
      "inputs": [
        {
          "indexed": false,
          "internalType": "string",
          "name": "tipo",
          "type": "string"
        },
        {
          "indexed": false,
          "internalType": "uint256",
          "name": "punto",
          "type": "uint256"
        }
      ],
      "name": "puntoApuestasComeNotCome",
      "type": "event"
    },
    {
      "anonymous": false,
      "inputs": [
        {
          "indexed": false,
          "internalType": "uint256",
          "name": "dado1",
          "type": "uint256"
        },
        {
          "indexed": false,
          "internalType": "uint256",
          "name": "dado2",
          "type": "uint256"
        }
      ],
      "name": "resultadoDados",
      "type": "event"
    },
    {
      "inputs": [],
      "name": "dado1",
      "outputs": [
        {
          "internalType": "uint256",
          "name": "",
          "type": "uint256"
        }
      ],
      "stateMutability": "view",
      "type": "function"
    },
    {
      "inputs": [],
      "name": "dado2",
      "outputs": [
        {
          "internalType": "uint256",
          "name": "",
          "type": "uint256"
        }
      ],
      "stateMutability": "view",
      "type": "function"
    },
    {
      "inputs": [],
      "name": "manager",
      "outputs": [
        {
          "internalType": "address",
          "name": "",
          "type": "address"
        }
      ],
      "stateMutability": "view",
      "type": "function"
    },
    {
      "inputs": [],
      "name": "primeraTirada",
      "outputs": [
        {
          "internalType": "bool",
          "name": "",
          "type": "bool"
        }
      ],
      "stateMutability": "view",
      "type": "function"
    },
    {
      "inputs": [],
      "name": "punto",
      "outputs": [
        {
          "internalType": "uint256",
          "name": "",
          "type": "uint256"
        }
      ],
      "stateMutability": "view",
      "type": "function"
    },
    {
      "inputs": [],
      "name": "sumaDados",
      "outputs": [
        {
          "internalType": "uint256",
          "name": "",
          "type": "uint256"
        }
      ],
      "stateMutability": "view",
      "type": "function"
    },
    {
      "inputs": [
        {
          "internalType": "address",
          "name": "player",
          "type": "address"
        }
      ],
      "name": "lanzarDados",
      "outputs": [],
      "stateMutability": "nonpayable",
      "type": "function"
    },
    {
      "inputs": [
        {
          "internalType": "address",
          "name": "player",
          "type": "address"
        }
      ],
      "name": "passLine",
      "outputs": [],
      "stateMutability": "payable",
      "type": "function"
    },
    {
      "inputs": [
        {
          "internalType": "address",
          "name": "player",
          "type": "address"
        }
      ],
      "name": "notPassLine",
      "outputs": [],
      "stateMutability": "payable",
      "type": "function"
    },
    {
      "inputs": [
        {
          "internalType": "address",
          "name": "player",
          "type": "address"
        }
      ],
      "name": "dontComeBet",
      "outputs": [],
      "stateMutability": "payable",
      "type": "function"
    },
    {
      "inputs": [
        {
          "internalType": "address",
          "name": "player",
          "type": "address"
        }
      ],
      "name": "comeBet",
      "outputs": [],
      "stateMutability": "payable",
      "type": "function"
    },
    {
      "inputs": [
        {
          "internalType": "address",
          "name": "player",
          "type": "address"
        }
      ],
      "name": "fieldBet",
      "outputs": [],
      "stateMutability": "payable",
      "type": "function"
    },
    {
      "inputs": [
        {
          "internalType": "address",
          "name": "jugador",
          "type": "address"
        }
      ],
      "name": "obtenerInfoApuesta",
      "outputs": [
        {
          "internalType": "enum PassOrNotPass[]",
          "name": "",
          "type": "uint8[]"
        },
        {
          "internalType": "uint256[]",
          "name": "",
          "type": "uint256[]"
        }
      ],
      "stateMutability": "view",
      "type": "function"
    }
  ],
  "bytecode": "0x60806040526702c68af0bb1400003410156100865760405162461bcd60e51b815260206004820152603560248201527f446562657320696e74726f647563697220302e3220657468657220706172612060448201527f646573706c6567617220656c20636f6e747261746f0000000000000000000000606482015260840160405180910390fd5b600080546001600160a01b031916331781556005805460018181018355928290527f036b6384b5eca791c62761152d0c79bb0604c104a5fb6f4eb0703f3154bb3db0908101839055815480840183556002908201558154808401835560039082015581548084018355600490820155815480840183558101829055815492830190915560069101556130e78061011d6000396000f3fe6080604052600436106100c15760003560e01c80638adc114a1161007f578063c83fdee711610059578063c83fdee7146101e7578063caa44cb0146101fd578063e29eb90814610210578063fa842a661461023057600080fd5b80638adc114a1461019457806397bd8737146101a7578063c7b43e20146101d157600080fd5b806239f119146100c6578063481c6a75146100fd578063672c0a341461013557806367dc4ba614610159578063794379461461016e57806384cb4aec14610181575b600080fd5b3480156100d257600080fd5b506100e66100e1366004612d6b565b610246565b6040516100f4929190612db1565b60405180910390f35b34801561010957600080fd5b5060005461011d906001600160a01b031681565b6040516001600160a01b0390911681526020016100f4565b34801561014157600080fd5b5061014b60045481565b6040519081526020016100f4565b61016c610167366004612d6b565b610413565b005b61016c61017c366004612d6b565b61064b565b61016c61018f366004612d6b565b610879565b61016c6101a2366004612d6b565b6109c2565b3480156101b357600080fd5b50600a546101c19060ff1681565b60405190151581526020016100f4565b3480156101dd57600080fd5b5061014b60025481565b3480156101f357600080fd5b5061014b60015481565b61016c61020b366004612d6b565b610b46565b34801561021c57600080fd5b5061016c61022b366004612d6b565b610cbf565b34801561023c57600080fd5b5061014b60035481565b6001600160a01b03811660009081526006602052604081208054606092839291908167ffffffffffffffff81111561028057610280612e4a565b6040519080825280602002602001820160405280156102a9578160200160208202803683370190505b50905060008267ffffffffffffffff8111156102c7576102c7612e4a565b6040519080825280602002602001820160405280156102f0578160200160208202803683370190505b50905060005b838110156104065784600001818154811061031357610313612e60565b90600052602060002090602091828204019190069054906101000a900460ff1683828151811061034557610345612e60565b6020026020010190600481111561035e5761035e612d9b565b9081600481111561037157610371612d9b565b8152505084600101600086600001838154811061039057610390612e60565b90600052602060002090602091828204019190069054906101000a900460ff1660048111156103c1576103c1612d9b565b60048111156103d2576103d2612d9b565b8152602001908152602001600020548282815181106103f3576103f3612e60565b60209081029190910101526001016102f6565b5090969095509350505050565b6000341161043c5760405162461bcd60e51b815260040161043390612e76565b60405180910390fd5b606434111561045d5760405162461bcd60e51b815260040161043390612ead565b600a5460ff1661047f5760405162461bcd60e51b815260040161043390612edd565b6001600160a01b0381166000908152600660209081526040808320600280855201909152902054156104ff5760405162461bcd60e51b8152602060048201526024808201527f5961207469656e657320756e61206170756573746120436f6d65207265616c696044820152637a61646160e01b6064820152608401610433565b6001600160a01b038116600090815260066020526040812061052290600261110b565b9050610530600234846111a3565b806105df576000805b60085481101561058b57836001600160a01b03166008828154811061056057610560612e60565b6000918252602090912001546001600160a01b031603610583576001915061058b565b600101610539565b50806105dd57600880546001810182556000919091527ff3f7a9fe364faab93b216da50a3214154f22a0a2b415b23a84c8169e8b636ee30180546001600160a01b0319166001600160a01b0385161790555b505b6040805160608082526018908201527f4170756573746120436f6d65207265616c697a6164613a20000000000000000060808201526001600160a01b038416602082015234918101919091526000805160206130728339815191529060a0015b60405180910390a15050565b6000341161066b5760405162461bcd60e51b815260040161043390612e76565b606434111561068c5760405162461bcd60e51b815260040161043390612ead565b600a5460ff166106ae5760405162461bcd60e51b815260040161043390612edd565b6001600160a01b038116600090815260066020908152604080832060038452600201909152902054156107355760405162461bcd60e51b815260206004820152602960248201527f5961207469656e657320756e61206170756573746120446f6e7420436f6d65206044820152687265616c697a61646160b81b6064820152608401610433565b6001600160a01b038116600090815260066020526040812061075890600361110b565b9050610766600334846111a3565b80610815576000805b6008548110156107c157836001600160a01b03166008828154811061079657610796612e60565b6000918252602090912001546001600160a01b0316036107b957600191506107c1565b60010161076f565b508061081357600880546001810182556000919091527ff3f7a9fe364faab93b216da50a3214154f22a0a2b415b23a84c8169e8b636ee30180546001600160a01b0319166001600160a01b0385161790555b505b604080516060808252601d908201527f4170756573746120446f6e7420436f6d65207265616c697a6164613a2000000060808201526001600160a01b038416602082015234918101919091526000805160206130728339815191529060a00161063f565b600034116108995760405162461bcd60e51b815260040161043390612e76565b60643411156108ba5760405162461bcd60e51b815260040161043390612ead565b600a5460ff166108dc5760405162461bcd60e51b815260040161043390612edd565b6001600160a01b03811660009081526006602052604081206108ff90600461110b565b905061090d600434846111a3565b8061095e57600980546001810182556000919091527f6e1540171b6c0c960b71a7020d9f60077f6af931a8bbf590da0223dacf75c7af0180546001600160a01b0319166001600160a01b0384161790555b6040805160608082526019908201527f41707565737461204669656c64207265616c697a6164613a200000000000000060808201526001600160a01b038416602082015234918101919091526000805160206130728339815191529060a00161063f565b600034116109e25760405162461bcd60e51b815260040161043390612e76565b6064341115610a035760405162461bcd60e51b815260040161043390612ead565b600a5460ff1615610a565760405162461bcd60e51b815260206004820152601f60248201527f4c61207072696d65726120746972616461207961207365207265616c697a6f006044820152606401610433565b6001600160a01b0381166000908152600660205260408120610a7990600161110b565b9050610a87600134846111a3565b80610ad857600780546001810182556000919091527fa66cc928b5edb82af9bd49922954155ab7b0942694bea4ce44661d9a8736c6880180546001600160a01b0319166001600160a01b0384161790555b6040805160608082526021908201527f41707565737461204e6f742050617373204c696e65207265616c697a6164613a6080820152600160fd1b60a08201526001600160a01b038416602082015234918101919091526000805160206130728339815191529060c00161063f565b60003411610b665760405162461bcd60e51b815260040161043390612e76565b6064341115610b875760405162461bcd60e51b815260040161043390612ead565b600a5460ff1615610bda5760405162461bcd60e51b815260206004820152601f60248201527f4c61207072696d65726120746972616461207961207365207265616c697a6f006044820152606401610433565b6001600160a01b0381166000908152600660205260408120610bfc908261110b565b9050610c0a600034846111a3565b80610c5b57600780546001810182556000919091527fa66cc928b5edb82af9bd49922954155ab7b0942694bea4ce44661d9a8736c6880180546001600160a01b0319166001600160a01b0384161790555b604080516060808252601d908201527f417075657374612050617373204c696e65207265616c697a6164613a2000000060808201526001600160a01b038416602082015234918101919091526000805160206130728339815191529060a00161063f565b6000546001600160a01b0390811690821603610d295760405162461bcd60e51b8152602060048201526024808201527f456c206d616e61676572206e6f207075656465206c616e7a6172206c6f73206460448201526361646f7360e01b6064820152608401610433565b600754610d865760405162461bcd60e51b815260206004820152602560248201527f446562652068616265727365207265616c697a61646f20616c67756e61206170604482015264756573746160d81b6064820152608401610433565b6005610d906112cf565b81548110610da057610da0612e60565b6000918252602090912001546001556005610db961130d565b81548110610dc957610dc9612e60565b6000918252602090912001546002819055600154610de79190612f3b565b6003556001546002546040517f42aa2b476b27d20332d6e47ff22883335cbefcb6a7dde501f8a5b25d925d0b8c92610e2792908252602082015260400190565b60405180910390a1600a5460ff16610ef657600754600090610e4b90600190612f4e565b90505b60008112610ef257600060078281548110610e6b57610e6b612e60565b60009182526020808320909101546001600160a01b0316808352600690915260408220909250610e9a9161110b565b15610eab57610eab8160035461132e565b6001600160a01b0381166000908152600660205260409020610ece90600161110b565b15610edf57610edf81600354611536565b5080610eea81612f6e565b915050610e4e565b5050565b600754600090610f0890600190612f4e565b90505b60008112610fd857600060078281548110610f2857610f28612e60565b60009182526020808320909101546001600160a01b0316808352600690915260408220909250610f579161110b565b15610f6857610f68816003546117a7565b6001600160a01b0381166000908152600660205260409020610f8b90600161110b565b15610f9c57610f9c81600354611997565b60035460071480610fb05750600454600354145b15610fc5576000600455600a805460ff191690555b5080610fd081612f6e565b915050610f0b565b50600854600090610feb90600190612f4e565b90505b600081126110955760006008828154811061100b5761100b612e60565b60009182526020808320909101546001600160a01b03168083526006909152604090912090915061103d90600261110b565b1561104e5761104e81600354611b88565b6001600160a01b038116600090815260066020526040902061107190600361110b565b1561108257611082816003546120c0565b508061108d81612f6e565b915050610fee565b506009546000906110a890600190612f4e565b90505b60008112610ef2576000600982815481106110c8576110c8612e60565b600091825260209091200154600a546001600160a01b03909116915060ff16156110f8576110f88160035461250d565b508061110381612f6e565b9150506110ab565b6000805b835460ff821610156111975782600481111561112d5761112d612d9b565b846000018260ff168154811061114557611145612e60565b90600052602060002090602091828204019190069054906101000a900460ff16600481111561117657611176612d9b565b0361118557600191505061119d565b8061118f81612f8b565b91505061110f565b50600090505b92915050565b6001600160a01b03811660009081526006602052604081209060018201818660048111156111d3576111d3612d9b565b60048111156111e4576111e4612d9b565b815260200190815260200160002054111561124b578281600101600086600481111561121257611212612d9b565b600481111561122357611223612d9b565b815260200190815260200160002060008282546112409190612f3b565b909155506112c99050565b805460018101825560008281526020908190209082040180548692601f166101000a60ff8102199091169083600481111561128857611288612d9b565b0217905550828160010160008660048111156112a6576112a6612d9b565b60048111156112b7576112b7612d9b565b81526020810191909152604001600020555b50505050565b6000806006444260056040516020016112ea93929190612faa565b6040516020818303038152906040528051906020012060001c61119d9190613009565b600080600644426040516020016112ea929190918252602082015260400190565b6001600160a01b03821660009081526006602052604090206007821480611355575081600b145b1561142e5760008080526001820160205260409020546001600160a01b0384166108fc61138383600261301d565b6040518115909202916000818181858888f193505050501580156113ab573d6000803e3d6000fd5b506040805160608082526029908201527f47616e616e2050617373204c696e65206e756d65726f2037206f20313120656e60808201526820312074697261646160b81b60a08201526001600160a01b03861660208201529081018290526000805160206130728339815191529060c00160405180910390a16112c98460006126a3565b816002148061143d5750816003145b80611448575081600c145b156114b25760008051602061309283398151915260405161149a906020808252601a908201527f41707565737461732050617373204c696e65207069657264656e000000000000604082015260600190565b60405180910390a16114ad8360006126a3565b505050565b6004546000036114ad57604080518181526017818301527f456c2070756e746f20657320656c206e756d65726f3a2000000000000000000060608201526020810184905290517f210374df66537c4ba090e404ed9d9beeb751a06d91f6237d62c369b60d5bbc919181900360800190a15060045550600a805460ff19166001179055565b6001600160a01b0382166000908152600660205260409020600782148061155d575081600b145b156115c2576000805160206130928339815191526040516115af906020808252601e908201527f4170756573746173204e6f742070617373206c696e65207069657264656e0000604082015260600190565b60405180910390a16114ad8360016126a3565b81600214806115d15750816003145b156116af576001600081815290820160205260409020546001600160a01b0384166108fc61160083600261301d565b6040518115909202916000818181858888f19350505050158015611628573d6000803e3d6000fd5b50604080516060808252602c908201527f47616e616e204e6f742050617373204c696e65206e756d65726f2032206f203360808201526b20656e20312074697261646160a01b60a08201526001600160a01b03861660208201529081018290526000805160206130728339815191529060c0015b60405180910390a16112c98460016126a3565b81600c036114b25760016000818152908201602090815260409182902054825160608082526038908201527f456d7061746520656e20617075657374617320446f6e742050617373204c696e60808201527f652c2073652064657675656c766520656c2064696e65726f000000000000000060a08201526001600160a01b038716928101929092528183015290516000805160206130728339815191529181900360c00190a16001600081815290820160205260408082205490516001600160a01b0386169282156108fc02929190818181858888f1935050505015801561179b573d6000803e3d6000fd5b506114ad8360016126a3565b6001600160a01b038216600090815260066020526040902060078290036118155760008051602061309283398151915260405161149a906020808252601a908201527f41707565737461732050617373204c696e65207069657264656e000000000000604082015260600190565b60045482036114ad576000600454600414806118335750600454600a145b1561185b57600080805260018301602052604090205461185490600361301d565b90506118e0565b6004546005148061186e57506004546009145b1561189c57600080805260018301602052604090205460029061189290600361301d565b6118549190613034565b600454600614806118af57506004546008145b156118e05760008080526001830160205260409020546005906118d390600661301d565b6118dd9190613034565b90505b6040516001600160a01b0385169082156108fc029083906000818181858888f19350505050158015611916573d6000803e3d6000fd5b506040805160608082526027908201527f47616e616e2061707565737461732050617373204c696e652073616c696f20656080820152666c2070756e746f60c81b60a08201526001600160a01b03861660208201529081018290526000805160206130728339815191529060c00160405180910390a16112c98460006126a3565b6001600160a01b03821660009081526006602052604090206007829003611b32576001600081815290820160205260409020546004805414806119dc5750600454600a145b15611a05576001600081815290830160205260409020546119fe90600361301d565b9050611a8c565b60045460051480611a1857506004546009145b15611a4757600160008181529083016020526040902054600290611a3d90600361301d565b6119fe9190613034565b60045460061480611a5a57506004546008145b15611a8c57600160008181529083016020526040902054600590611a7f90600661301d565b611a899190613034565b90505b6040516001600160a01b0385169082156108fc029083906000818181858888f19350505050158015611ac2573d6000803e3d6000fd5b506040805160608082526024908201527f47616e616e204e6f742050617373206e756d65726f203720656e206c612074696080820152637261646160e01b60a08201526001600160a01b03861660208201529081018290526000805160206130728339815191529060c00161169c565b60045482036114ad576000805160206130928339815191526040516115af906020808252601f908201527f417075657374617320446f6e742050617373204c696e65207069657264656e00604082015260600190565b6001600160a01b03821660009081526006602052604090206007829003611d075760026000818152908201602052604090205415611c2c57600080516020613092833981519152604051611c1f9060208082526029908201527f4170756573746120436f6d65207069657264652c203720616e746573207175656040820152682073752070756e746f60b81b606082015260800190565b60405180910390a1611cfc565b60026000818152600183016020526040902054906001600160a01b038516906108fc90611c5a90849061301d565b6040518115909202916000818181858888f19350505050158015611c82573d6000803e3d6000fd5b506040805160608082526029908201527f47616e616e20617075657374617320436f6d65206e756d65726f203720656e206080820152686c612074697261646160b81b60a08201526001600160a01b03861660208201529081018290526000805160206130728339815191529060c00160405180910390a1505b6114ad8360026126a3565b81600b03611e015760026000818152908201602052604081205490036114ad5760026000818152600183016020526040902054906001600160a01b038516906108fc90611d5590849061301d565b6040518115909202916000818181858888f19350505050158015611d7d573d6000803e3d6000fd5b50604080516060808252602a908201527f47616e616e20617075657374617320436f6d65206e756d65726f20313120656e608082015269206c612074697261646160b01b60a08201526001600160a01b03861660208201529081018290526000805160206130728339815191529060c00160405180910390a16112c98460026126a3565b8160021480611e105750816003145b80611e1b575081600c145b15611e985760026000818152908201602052604081205490036114ad57600080516020613092833981519152604051611e85906020808252601c908201527f43726170732c20617075657374617320436f6d65207069657264656e00000000604082015260600190565b60405180910390a16114ad8360026126a3565b600260008181529082016020526040902054156120465760026000818152908201602052604081205483810361203f578060041480611ed7575080600a145b15611f015760026000908152600184016020526040902054611efa90600361301d565b9150611f7f565b8060051480611f105750806009145b15611f3d5760026000818152600185016020526040902054611f3390600361301d565b611efa9190613034565b8060061480611f4c5750806008145b15611f7f5760026000908152600184016020526040902054600590611f7290600661301d565b611f7c9190613034565b91505b6040516001600160a01b0386169083156108fc029084906000818181858888f19350505050158015611fb5573d6000803e3d6000fd5b506040805160608082526030908201527f47616e616e20617075657374617320436f6d652073616c696f20656c2070756e60808201526f746f206465207375206170756573746160801b60a08201526001600160a01b03871660208201529081018390526000805160206130728339815191529060c00160405180910390a161203f8560026126a3565b5050505050565b60026000818152908201602090815260409182902084905581518281526013928101929092527220b83ab2b9ba309021b7b6b290383ab73a379d60691b606083015281018390527f17ce1764e4aee58443f8eb62ebf5cbef98ccdd8f1d43cf440a54a8a014ac5ff1906080015b60405180910390a1505050565b6001600160a01b038216600090815260066020526040902060078290036122f4576003600090815260028201602052604090205415612288576003600090815260028201602090815260408083205460018501909252909120546004821480612129575081600a145b15612151576003600081815260018501602052604090205461214a9161301d565b90506121d1565b81600514806121605750816009145b1561218f5760036000818152600185016020526040902054600291612185919061301d565b61214a9190613034565b816006148061219e5750816008145b156121d157600360009081526001840160205260409020546005906121c490600661301d565b6121ce9190613034565b90505b6040516001600160a01b0386169082156108fc029083906000818181858888f19350505050158015612207573d6000803e3d6000fd5b50604080516060808252602b908201527f47616e616e20446f6e7420436f6d65206e756d65726f203720616e746573207160808201526a75652073752070756e746f60a81b60a08201526001600160a01b03871660208201529081018290526000805160206130728339815191529060c00160405180910390a150506122e9565b6000805160206130928339815191526040516122e09060208082526022908201527f4170756573746120446f6e7420436f6d65207069657264652c206e756d65726f604082015261203760f01b606082015260800190565b60405180910390a15b6114ad8360036126a3565b81600b0361237c576003600090815260028201602052604081205490036114ad576000805160206130928339815191526040516122e09060208082526031908201527f417075657374617320446f6e7420436f6d65207069657264656e206e756d65726040820152706f20313120656e206c612074697261646160781b606082015260800190565b816002148061238b5750816003145b80612396575081600c145b15612478576003600090815260028201602052604081205490036114ad57600360009081526001820160205260409020546001600160a01b0384166108fc6123df83600261301d565b6040518115909202916000818181858888f19350505050158015612407573d6000803e3d6000fd5b50604080516060808252601f908201527f47616e616e20446f6e7420436f6d65206e756d65726f20322c33206f2031320060808201526001600160a01b03861660208201529081018290526000805160206130728339815191529060a00160405180910390a16112c98460036126a3565b6003600090815260028201602052604081205490036114ad576003600090815260028201602090815260409182902084905581518281526018928101929092527f4170756573746120446f6e7420436f6d652050756e746f3a0000000000000000606083015281018390527f17ce1764e4aee58443f8eb62ebf5cbef98ccdd8f1d43cf440a54a8a014ac5ff1906080016120b3565b6001600160a01b038216600090815260066020526040902060038214806125345750816004145b8061253f5750816009145b8061254a575081600a145b80612555575081600b145b15612614576004600090815260018201602052604081205461257890600261301d565b6040519091506001600160a01b0385169082156108fc029083906000818181858888f193505050501580156125b1573d6000803e3d6000fd5b506040805160608082526014908201527341707565737461204669656c642067616e61646160601b60808201526001600160a01b03861660208201529081018290526000805160206130728339815191529060a00160405180910390a15061269c565b8160021480612623575081600c145b15612646576004600090815260018201602052604081205461257890600361301d565b6000805160206130928339815191526040516126939060208082526018908201527f4170756573746173206669656c6420706572646965726f6e0000000000000000604082015260600190565b60405180910390a15b6114ad8360045b6001600160a01b038216600090815260066020526040812090805b8254811015612734578360048111156126d9576126d9612d9b565b8360000182815481106126ee576126ee612e60565b90600052602060002090602091828204019190069054906101000a900460ff16600481111561271f5761271f612d9b565b0361272c57809150612734565b6001016126be565b508154811015612843578154829061274e90600190613048565b8154811061275e5761275e612e60565b90600052602060002090602091828204019190069054906101000a900460ff1682600001828154811061279357612793612e60565b90600052602060002090602091828204019190066101000a81548160ff021916908360048111156127c6576127c6612d9b565b021790555060008260010160008560048111156127e5576127e5612d9b565b60048111156127f6576127f6612d9b565b815260208101919091526040016000205581548290806128185761281861305b565b60019003818190600052602060002090602091828204019190066101000a81549060ff021916905590555b600283600481111561285757612857612d9b565b14806128745750600383600481111561287257612872612d9b565b145b156128b657600082600201600085600481111561289357612893612d9b565b60048111156128a4576128a4612d9b565b81526020810191909152604001600020555b606060008460048111156128cc576128cc612d9b565b14806128e9575060018460048111156128e7576128e7612d9b565b145b1561295057600780548060200260200160405190810160405280929190818152602001828054801561294457602002820191906000526020600020905b81546001600160a01b03168152600190910190602001808311612926575b50505050509050612a5d565b600284600481111561296457612964612d9b565b14806129815750600384600481111561297f5761297f612d9b565b145b156129e6576008805480602002602001604051908101604052809291908181526020018280548015612944576020028201919060005260206000209081546001600160a01b031681526001909101906020018083116129265750505050509050612a5d565b60048460048111156129fa576129fa612d9b565b03612a5d576009805480602002602001604051908101604052809291908181526020018280548015612a5557602002820191906000526020600020905b81546001600160a01b03168152600190910190602001808311612a37575b505050505090505b6000805b8251811015612aac57866001600160a01b0316838281518110612a8657612a86612e60565b60200260200101516001600160a01b031603612aa457809150612aac565b600101612a61565b508151811015612b1b578160018351612ac59190613048565b81518110612ad557612ad5612e60565b6020026020010151828281518110612aef57612aef612e60565b60200260200101906001600160a01b031690816001600160a01b031681525050612b1882612be9565b91505b6000856004811115612b2f57612b2f612d9b565b1480612b4c57506001856004811115612b4a57612b4a612d9b565b145b15612b6a578151612b64906007906020850190612cf1565b50612be1565b6002856004811115612b7e57612b7e612d9b565b1480612b9b57506003856004811115612b9957612b99612d9b565b145b15612bb3578151612b64906008906020850190612cf1565b6004856004811115612bc757612bc7612d9b565b03612be1578151612bdf906009906020850190612cf1565b505b505050505050565b60606000825111612c325760405162461bcd60e51b8152602060048201526013602482015272456c206172726179206573746120766163696f60681b6044820152606401610433565b600060018351612c429190613048565b67ffffffffffffffff811115612c5a57612c5a612e4a565b604051908082528060200260200182016040528015612c83578160200160208202803683370190505b50905060005b60018451612c979190613048565b811015612cea57838181518110612cb057612cb0612e60565b6020026020010151828281518110612cca57612cca612e60565b6001600160a01b0390921660209283029190910190910152600101612c89565b5092915050565b828054828255906000526020600020908101928215612d46579160200282015b82811115612d4657825182546001600160a01b0319166001600160a01b03909116178255602090920191600190910190612d11565b50612d52929150612d56565b5090565b5b80821115612d525760008155600101612d57565b600060208284031215612d7d57600080fd5b81356001600160a01b0381168114612d9457600080fd5b9392505050565b634e487b7160e01b600052602160045260246000fd5b604080825283519082018190526000906020906060840190828701845b82811015612e0857815160058110612df657634e487b7160e01b600052602160045260246000fd5b84529284019290840190600101612dce565b5050508381038285015284518082528583019183019060005b81811015612e3d57835183529284019291840191600101612e21565b5090979650505050505050565b634e487b7160e01b600052604160045260246000fd5b634e487b7160e01b600052603260045260246000fd5b6020808252601a908201527f44656265732061706f7374617220756e612063616e7469646164000000000000604082015260600190565b60208082526016908201527541707565737461206d6178696d61203130302057656960501b604082015260600190565b60208082526028908201527f446562652068616265727365207265616c697a61646f206c61207072696d6572604082015267612074697261646160c01b606082015260800190565b634e487b7160e01b600052601160045260246000fd5b8082018082111561119d5761119d612f25565b8181036000831280158383131683831282161715612cea57612cea612f25565b6000600160ff1b8201612f8357612f83612f25565b506000190190565b600060ff821660ff8103612fa157612fa1612f25565b60010192915050565b8381526000602084602084015260408301845485600052602060002060005b82811015612fe557815484529284019260019182019101612fc9565b509198975050505050505050565b634e487b7160e01b600052601260045260246000fd5b60008261301857613018612ff3565b500690565b808202811582820484141761119d5761119d612f25565b60008261304357613043612ff3565b500490565b8181038181111561119d5761119d612f25565b634e487b7160e01b600052603160045260246000fdfe0e20e31792bf64ac9f1d30f36fc58e1134e2034ea5af14fb2c1daed0f3df660baa94bd108c75a08714f7aef96d81029f11a1eb57c1e863e93c9a663d5fafbd82a264697066735822122098624a2f1193b0a311a0d21a88a0051f36f074b9fea8953b382667333e73265f64736f6c63430008170033",
  "immutableReferences": {},
  "source": "// SPDX-License-Identifier: GPL-3.0\r\n\r\npragma solidity >=0.8.2 <0.9.0;\r\n\r\nimport \"./Tipos.sol\";\r\n\r\ncontract Dados{\r\n\r\n    address public manager;\r\n    uint256 public dado1;\r\n    uint256 public dado2;\r\n    uint256 public sumaDados;\r\n    uint256 public punto;\r\n   \r\n    \r\n    uint256[] private numDados;\r\n\r\n    struct infoApuesta {\r\n        PassOrNotPass[] tipoApuesta;\r\n        mapping(PassOrNotPass => uint256) cantidades;\r\n        mapping(PassOrNotPass => uint256) puntoCraps;\r\n    }\r\n\r\n    mapping (address => infoApuesta) private apuestas;\r\n\r\n    address payable[] private betsPassNotPassAddress;\r\n    address payable[] private betsComeNotComeAddress;\r\n    address payable[] private betsFieldAddress;\r\n    bool public primeraTirada; //Si no se ha realizado ninguna es false\r\n \r\n    constructor() payable{\r\n        require(msg.value >= 0.2 ether, \"Debes introducir 0.2 ether para desplegar el contrato\");\r\n        manager = msg.sender;\r\n        numDados.push(1);\r\n        numDados.push(2);\r\n        numDados.push(3);\r\n        numDados.push(4);\r\n        numDados.push(5);\r\n        numDados.push(6);\r\n    }\r\n\r\n    event resultadoDados(uint256 dado1, uint256 dado2);\r\n    event apuestaSucces(string info,address jugador, uint256 cantidad);\r\n    event craps(string craps);\r\n    event nuevoPunto(string s, uint256 punto);\r\n    event puntoApuestasComeNotCome(string tipo, uint256 punto);\r\n \r\n    modifier validarApuesta(){\r\n        require(msg.value > 0, \"Debes apostar una cantidad\");\r\n        require(msg.value <= 100, \"Apuesta maxima 100 Wei\");\r\n        _;\r\n    }\r\n\r\n\r\n    function lanzarPrimerDado() private view returns (uint256 num){\r\n        uint256 a = uint256(keccak256(abi.encodePacked(block.difficulty, block.timestamp, numDados)))\r\n        % 6;\r\n        return a;\r\n    }\r\n\r\n    function lanzarSegundoDado() private view returns (uint256 num){\r\n        uint256 a = uint256(keccak256(abi.encodePacked(block.difficulty, block.timestamp)))\r\n        % 6;\r\n        return a;\r\n    }\r\n\r\n    function haApostadoATipo(infoApuesta storage apuesta, PassOrNotPass tipo) internal view returns (bool) {\r\n        for (uint8 i = 0; i < apuesta.tipoApuesta.length; i++) {\r\n            if (apuesta.tipoApuesta[i] == tipo) {\r\n                return true;\r\n            }\r\n        }\r\n        return false;\r\n    }\r\n\r\n    function lanzarDados(address player) public {\r\n        require(player != manager, \"El manager no puede lanzar los dados\");\r\n        require(betsPassNotPassAddress.length > 0, \"Debe haberse realizado alguna apuesta\");\r\n\r\n        dado1 = numDados[lanzarPrimerDado()];\r\n        dado2 = numDados[lanzarSegundoDado()];\r\n\r\n        sumaDados = dado1 + dado2;\r\n        emit resultadoDados(dado1, dado2);\r\n\r\n        if(!primeraTirada){ //Si es la primera tirada\r\n            for (int256 i = int256(betsPassNotPassAddress.length) - 1; i >= 0; i--) {\r\n                address payable jugador = betsPassNotPassAddress[uint256(i)];\r\n                if(haApostadoATipo(apuestas[jugador], PassOrNotPass.PassLine)){\r\n                    PrimeraTiradaPass(jugador, sumaDados);   \r\n                }\r\n                if(haApostadoATipo(apuestas[jugador], PassOrNotPass.NotPassLine)){\r\n                    primeraTiradaDontPass(jugador, sumaDados);\r\n                }\r\n            }\r\n\r\n        }else{\r\n            for(int256 i = int256(betsPassNotPassAddress.length) - 1; i >= 0; i--){\r\n                address payable jugador1 = betsPassNotPassAddress[uint256(i)];\r\n            //Siguientes tiradas \r\n                if(haApostadoATipo(apuestas[jugador1], PassOrNotPass.PassLine)){\r\n                    gestionarApuestasPass(jugador1, sumaDados);   \r\n                }\r\n                if(haApostadoATipo(apuestas[jugador1], PassOrNotPass.NotPassLine)){\r\n                    gestionarApuestasDontPassLine(jugador1, sumaDados);\r\n                }\r\n\r\n                if(sumaDados == 7 || sumaDados == punto){\r\n                    punto = 0;\r\n                    primeraTirada = false;\r\n                }\r\n            }\r\n\r\n            for(int256 i = int256(betsComeNotComeAddress.length) - 1; i >= 0; i--){\r\n                address payable jugador2 = betsComeNotComeAddress[uint256(i)];\r\n                \r\n                if(haApostadoATipo(apuestas[jugador2], PassOrNotPass.Come)){\r\n                    gestionarApuestasCome(jugador2, sumaDados);   \r\n                }\r\n                if(haApostadoATipo(apuestas[jugador2], PassOrNotPass.NotCome)){\r\n                    gestionarApuestasDontCome(jugador2, sumaDados);\r\n                }\r\n            }\r\n\r\n            for(int256 i = int256(betsFieldAddress.length) - 1; i >= 0; i--){\r\n                address payable jugador3 = betsFieldAddress[uint256(i)];\r\n                if(primeraTirada){\r\n                    gestionarApuestasField(jugador3, sumaDados);\r\n                }\r\n            }\r\n        }  \r\n    }\r\n\r\n    function PrimeraTiradaPass(address payable jugador, uint256 resDados) private {\r\n        infoApuesta storage apuesta = apuestas[jugador];\r\n        if(resDados == 7 || resDados == 11){\r\n            uint256 montoGanado = apuesta.cantidades[PassOrNotPass.PassLine];\r\n            jugador.transfer(montoGanado * 2);\r\n            emit apuestaSucces(\"Ganan Pass Line numero 7 o 11 en 1 tirada\", jugador, montoGanado);\r\n            eliminarApuesta(jugador, PassOrNotPass.PassLine);\r\n        }else if(resDados == 2 || resDados == 3 || resDados == 12){\r\n            emit craps(\"Apuestas Pass Line pierden\");\r\n            eliminarApuesta(jugador, PassOrNotPass.PassLine);\r\n        }else if(punto == 0){\r\n            emit nuevoPunto(\"El punto es el numero: \", resDados);\r\n            punto = resDados;\r\n            primeraTirada=true;\r\n        }\r\n    }\r\n\r\n    function primeraTiradaDontPass(address payable jugador, uint256 resDados) private {\r\n        infoApuesta storage apuesta = apuestas[jugador];\r\n\r\n        if(resDados == 7 || resDados == 11){\r\n            emit craps(\"Apuestas Not pass line pierden\");\r\n            eliminarApuesta(jugador, PassOrNotPass.NotPassLine);\r\n        }else if(resDados == 2 || resDados == 3){\r\n            //Se paga 1:1\r\n            uint256 montoGanado = apuesta.cantidades[PassOrNotPass.NotPassLine];\r\n            jugador.transfer(montoGanado * 2);\r\n            emit apuestaSucces(\"Ganan Not Pass Line numero 2 o 3 en 1 tirada\", jugador, montoGanado);\r\n            eliminarApuesta(jugador, PassOrNotPass.NotPassLine);\r\n        }else if(resDados == 12){\r\n            emit apuestaSucces(\"Empate en apuestas Dont Pass Line, se devuelve el dinero\", jugador, apuesta.cantidades[PassOrNotPass.NotPassLine]);\r\n            jugador.transfer(apuesta.cantidades[PassOrNotPass.NotPassLine]);\r\n            eliminarApuesta(jugador, PassOrNotPass.NotPassLine); \r\n        }else if(punto == 0){\r\n            emit nuevoPunto(\"El punto es el numero: \", resDados);\r\n            punto = resDados;\r\n            primeraTirada=true;\r\n        }\r\n    }\r\n\r\n    function gestionarApuestasPass(address payable jugador, uint256 resDados) private {\r\n        infoApuesta storage apuesta = apuestas[jugador];\r\n\r\n        if(resDados == 7){\r\n            emit craps(\"Apuestas Pass Line pierden\");\r\n            eliminarApuesta(jugador,PassOrNotPass.PassLine);\r\n        }else if(resDados == punto){\r\n            uint256 montoGanado;\r\n            if(punto == 4 || punto == 10 ){ //Se paga 2:1\r\n                montoGanado = apuesta.cantidades[PassOrNotPass.PassLine] * 3;\r\n            }else if(punto == 5 || punto == 9){ //Se paga 3:2\r\n                montoGanado = (apuesta.cantidades[PassOrNotPass.PassLine] * 3)/2;\r\n            }else if(punto == 6 || punto == 8){ //Se paga 6:5\r\n                montoGanado = (apuesta.cantidades[PassOrNotPass.PassLine] * 6)/5;\r\n            }\r\n            jugador.transfer(montoGanado);\r\n            emit apuestaSucces(\"Ganan apuestas Pass Line salio el punto\", jugador, montoGanado);\r\n            eliminarApuesta(jugador,PassOrNotPass.PassLine);\r\n        }\r\n    }\r\n\r\n    function gestionarApuestasDontPassLine(address payable jugador, uint256 resDados) private {\r\n        infoApuesta storage apuesta = apuestas[jugador];\r\n\r\n        if(resDados == 7){\r\n            uint256 montoGanado = apuesta.cantidades[PassOrNotPass.NotPassLine];\r\n                if(punto == 4 || punto == 10 ){ //Se paga 2:1\r\n                    montoGanado = apuesta.cantidades[PassOrNotPass.NotPassLine] * 3;\r\n                    //Se le devuelve lo que apuesta, mas lo que gana\r\n                }else if(punto == 5 || punto == 9){ //Se paga 3:2\r\n                    montoGanado = (apuesta.cantidades[PassOrNotPass.NotPassLine] * 3)/2;\r\n                }else if(punto == 6 || punto == 8){ //Se paga 6:5\r\n                    montoGanado = (apuesta.cantidades[PassOrNotPass.NotPassLine] * 6)/5;\r\n                }\r\n            jugador.transfer(montoGanado);\r\n            emit apuestaSucces(\"Ganan Not Pass numero 7 en la tirada\", jugador, montoGanado);\r\n            eliminarApuesta(jugador,PassOrNotPass.NotPassLine);\r\n        }else if(resDados == punto){\r\n            emit craps(\"Apuestas Dont Pass Line pierden\");\r\n            eliminarApuesta(jugador,PassOrNotPass.NotPassLine);\r\n        }\r\n    }\r\n\r\n    function gestionarApuestasCome(address payable jugador, uint256 resDados) private {\r\n        infoApuesta storage apuesta = apuestas[jugador];\r\n        if(resDados == 7){\r\n            //Tiene asignado un punto, la apuesta come\r\n            if(apuesta.puntoCraps[PassOrNotPass.Come] > 0){\r\n                emit craps(\"Apuesta Come pierde, 7 antes que su punto\");\r\n            }else{\r\n                uint256 montoGanado2 = apuesta.cantidades[PassOrNotPass.Come];\r\n                jugador.transfer(montoGanado2 * 2);\r\n                emit apuestaSucces(\"Ganan apuestas Come numero 7 en la tirada\", jugador, montoGanado2);\r\n            }\r\n        eliminarApuesta(jugador, PassOrNotPass.Come);\r\n        }else if(resDados == 11){\r\n            //No tiene asignado punto\r\n            if(apuesta.puntoCraps[PassOrNotPass.Come] == 0){\r\n            uint256 montoGanado2 = apuesta.cantidades[PassOrNotPass.Come];\r\n            jugador.transfer(montoGanado2 * 2);\r\n            emit apuestaSucces(\"Ganan apuestas Come numero 11 en la tirada\", jugador, montoGanado2);\r\n            eliminarApuesta(jugador,PassOrNotPass.Come);\r\n            }\r\n\r\n        }else if(resDados == 2 || resDados == 3 || resDados == 12){\r\n            if(apuesta.puntoCraps[PassOrNotPass.Come] == 0){\r\n                emit craps(\"Craps, apuestas Come pierden\");\r\n                eliminarApuesta(jugador,PassOrNotPass.Come);\r\n            }\r\n        }else{ \r\n            if(apuesta.puntoCraps[PassOrNotPass.Come] > 0){\r\n                uint256 montoGanado;\r\n                uint256 p = apuesta.puntoCraps[PassOrNotPass.Come];\r\n                if(p == resDados){\r\n                    if(p == 4 || p == 10 ){ //Se paga 2:1\r\n                        montoGanado = apuesta.cantidades[PassOrNotPass.Come] * 3;\r\n                    }else if(p == 5 || p == 9){ //Se paga 3:2\r\n                        montoGanado = (apuesta.cantidades[PassOrNotPass.Come] * 3)/2;\r\n                    }else if(p == 6 || p == 8){ //Se paga 6:5\r\n                        montoGanado = (apuesta.cantidades[PassOrNotPass.Come] * 6)/5;\r\n                    }\r\n                jugador.transfer(montoGanado);\r\n                emit apuestaSucces(\"Ganan apuestas Come salio el punto de su apuesta\", jugador, montoGanado);\r\n                eliminarApuesta(jugador,PassOrNotPass.Come);\r\n                }\r\n            }else{\r\n                apuesta.puntoCraps[PassOrNotPass.Come] = resDados;\r\n                emit puntoApuestasComeNotCome(\"Apuesta Come punto:\", apuesta.puntoCraps[PassOrNotPass.Come]);\r\n            }\r\n        } \r\n    }\r\n\r\n    function gestionarApuestasDontCome(address payable jugador, uint256 resDados) private {\r\n        infoApuesta storage apuesta = apuestas[jugador];\r\n        if(resDados == 7){\r\n            //Tiene asignado un punto la apuesta DONT COME, se paga en  funcion del punto asginado\r\n            if(apuesta.puntoCraps[PassOrNotPass.NotCome]>0){\r\n                uint256 pDontCome = apuesta.puntoCraps[PassOrNotPass.NotCome];\r\n                uint256 montoGanado3 = apuesta.cantidades[PassOrNotPass.NotCome];\r\n                if(pDontCome == 4 || pDontCome == 10 ){ //Se paga 2:1\r\n                    montoGanado3 = apuesta.cantidades[PassOrNotPass.NotCome] * 3;\r\n                    //Se le devuelve lo que apuesta, mas lo que gana\r\n                }else if(pDontCome == 5 || pDontCome == 9){ //Se paga 3:2\r\n                    montoGanado3 = (apuesta.cantidades[PassOrNotPass.NotCome] * 3)/2;\r\n                }else if(pDontCome == 6 || pDontCome == 8){ //Se paga 6:5\r\n                    montoGanado3 = (apuesta.cantidades[PassOrNotPass.NotCome] * 6)/5;\r\n                }\r\n                jugador.transfer(montoGanado3);\r\n                emit apuestaSucces(\"Ganan Dont Come numero 7 antes que su punto\", jugador, montoGanado3); \r\n            }else{\r\n                 emit craps(\"Apuesta Dont Come pierde, numero 7\");\r\n            }\r\n            eliminarApuesta(jugador,PassOrNotPass.NotCome);\r\n        }else if(resDados == 11){\r\n            if(apuesta.puntoCraps[PassOrNotPass.NotCome] == 0){\r\n                emit craps(\"Apuestas Dont Come pierden numero 11 en la tirada\");\r\n                eliminarApuesta(jugador,PassOrNotPass.NotCome);\r\n            }\r\n        }else if(resDados == 2 || resDados == 3 || resDados == 12){\r\n            if(apuesta.puntoCraps[PassOrNotPass.NotCome] == 0){\r\n                uint256 montoGanado4 = apuesta.cantidades[PassOrNotPass.NotCome];\r\n                jugador.transfer(montoGanado4 * 2);\r\n                emit apuestaSucces(\"Ganan Dont Come numero 2,3 o 12\", jugador, montoGanado4);\r\n                 eliminarApuesta(jugador,PassOrNotPass.NotCome);\r\n            }\r\n        }else{\r\n            if(apuesta.puntoCraps[PassOrNotPass.NotCome] == 0){\r\n                apuesta.puntoCraps[PassOrNotPass.NotCome] = resDados;\r\n                emit puntoApuestasComeNotCome(\"Apuesta Dont Come Punto:\", apuesta.puntoCraps[PassOrNotPass.NotCome]);\r\n            }\r\n        }\r\n    }\r\n\r\n    function gestionarApuestasField(address payable jugador, uint256 resDados) private {\r\n        infoApuesta storage apuesta = apuestas[jugador];\r\n\r\n        if(resDados == 3 || resDados == 4 || resDados == 9 || resDados == 10 || resDados == 11){\r\n            uint256 montoGanado = apuesta.cantidades[PassOrNotPass.Field] * 2;\r\n            jugador.transfer(montoGanado);\r\n            emit apuestaSucces(\"Apuesta Field ganada\", jugador, montoGanado);\r\n        }else if(resDados == 2 || resDados == 12){\r\n            uint256 montoGanado = apuesta.cantidades[PassOrNotPass.Field] * 3;\r\n            jugador.transfer(montoGanado);\r\n            emit apuestaSucces(\"Apuesta Field ganada\", jugador, montoGanado);\r\n        }else{\r\n            emit craps(\"Apuestas field perdieron\");\r\n        }\r\n        eliminarApuesta(jugador,PassOrNotPass.Field);\r\n        \r\n    }   \r\n\r\n    function hacerApuesta(PassOrNotPass tipoApst, uint256 cantidad, address player) private {\r\n        infoApuesta storage apuesta = apuestas[player];\r\n        if(apuesta.cantidades[tipoApst] > 0){\r\n            //El jugador ya tiene apuesta de este tipo\r\n            apuesta.cantidades[tipoApst] += cantidad;\r\n        }else{\r\n            //Primera apuesta del jugador a este tipo de Apuesta\r\n            apuesta.tipoApuesta.push(tipoApst);\r\n            apuesta.cantidades[tipoApst] = cantidad;\r\n        }\r\n    }\r\n\r\n    function passLine(address player) public validarApuesta payable {\r\n        require(!primeraTirada, \"La primera tirada ya se realizo\");\r\n        bool yaAposto = haApostadoATipo(apuestas[player], PassOrNotPass.PassLine);\r\n        hacerApuesta(PassOrNotPass.PassLine, msg.value, player);\r\n        \r\n        if (!yaAposto) {\r\n            betsPassNotPassAddress.push(payable(player));\r\n        }\r\n\r\n        emit apuestaSucces(\"Apuesta Pass Line realizada: \", player, msg.value);\r\n    }\r\n\r\n    function notPassLine(address player) public validarApuesta payable {\r\n        require(!primeraTirada, \"La primera tirada ya se realizo\");\r\n        bool yaAposto = haApostadoATipo(apuestas[player], PassOrNotPass.NotPassLine);\r\n        hacerApuesta(PassOrNotPass.NotPassLine, msg.value, player);\r\n\r\n        if (!yaAposto) {\r\n            betsPassNotPassAddress.push(payable(player));\r\n        }\r\n        \r\n        emit apuestaSucces(\"Apuesta Not Pass Line realizada: \", player, msg.value);\r\n    }\r\n\r\n    function dontComeBet(address player) public validarApuesta payable {\r\n        require(primeraTirada, \"Debe haberse realizado la primera tirada\");\r\n        require(apuestas[player].puntoCraps[PassOrNotPass.NotCome] == 0, \"Ya tienes una apuesta Dont Come realizada\");\r\n\r\n        bool yaAposto = haApostadoATipo(apuestas[player], PassOrNotPass.NotCome);\r\n        hacerApuesta(PassOrNotPass.NotCome, msg.value, player);\r\n\r\n        if(!yaAposto){\r\n            bool addressEnArray = false;\r\n            for (uint256 i = 0; i < betsComeNotComeAddress.length; i++) {\r\n                if (betsComeNotComeAddress[i] == payable(player)) {\r\n                    addressEnArray = true;\r\n                    break;\r\n                }\r\n        }\r\n\r\n        if (!addressEnArray) {\r\n            betsComeNotComeAddress.push(payable(player));\r\n        }\r\n        }\r\n        emit apuestaSucces(\"Apuesta Dont Come realizada: \", player, msg.value);\r\n    }\r\n\r\n    function comeBet(address player) public validarApuesta payable {\r\n        require(primeraTirada, \"Debe haberse realizado la primera tirada\");\r\n        require(apuestas[player].puntoCraps[PassOrNotPass.Come] == 0, \"Ya tienes una apuesta Come realizada\");\r\n        \r\n\r\n        bool yaAposto = haApostadoATipo(apuestas[player], PassOrNotPass.Come);\r\n        hacerApuesta(PassOrNotPass.Come, msg.value, player);\r\n\r\n        if(!yaAposto){\r\n            bool addressEnArray = false;\r\n            for (uint256 i = 0; i < betsComeNotComeAddress.length; i++) {\r\n                if (betsComeNotComeAddress[i] == payable(player)) {\r\n                    addressEnArray = true;\r\n                    break;\r\n                }\r\n        }\r\n\r\n        if (!addressEnArray) {\r\n            betsComeNotComeAddress.push(payable(player));\r\n        }\r\n        }\r\n\r\n        emit apuestaSucces(\"Apuesta Come realizada: \", player, msg.value);\r\n    }\r\n\r\n    function fieldBet(address player) public validarApuesta payable{\r\n        require(primeraTirada, \"Debe haberse realizado la primera tirada\");\r\n\r\n        bool yaAposto = haApostadoATipo(apuestas[player], PassOrNotPass.Field);\r\n        hacerApuesta(PassOrNotPass.Field, msg.value, player);\r\n\r\n        if(!yaAposto){\r\n            betsFieldAddress.push(payable(player));\r\n        }\r\n\r\n        emit apuestaSucces(\"Apuesta Field realizada: \", player, msg.value);\r\n    }\r\n\r\n    // Funcin para obtener la informacin de apuesta de un jugador\r\n    function obtenerInfoApuesta(address jugador) public view returns (PassOrNotPass[] memory, uint256[] memory) {\r\n        infoApuesta storage apuesta = apuestas[jugador];\r\n        uint256 tiposDeApuestas = apuesta.tipoApuesta.length;\r\n\r\n        PassOrNotPass[] memory tipoApuesta = new PassOrNotPass[](tiposDeApuestas);\r\n        uint256[] memory cantidades = new uint256[](tiposDeApuestas);\r\n\r\n        for (uint256 i = 0; i < tiposDeApuestas; i++) {\r\n            tipoApuesta[i] = apuesta.tipoApuesta[i];\r\n            cantidades[i] = apuesta.cantidades[apuesta.tipoApuesta[i]];\r\n        }\r\n\r\n        return (tipoApuesta, cantidades);\r\n    }\r\n\r\n    function eliminarApuesta(address payable jugador, PassOrNotPass tipoApuesta) private {\r\n        // Elimina la apuesta especfica del jugador\r\n        infoApuesta storage apuesta = apuestas[jugador];\r\n\r\n        // Encuentra la posicin del tipo de apuesta en el array\r\n        uint256 indexToDelete;\r\n        for (uint256 i = 0; i < apuesta.tipoApuesta.length; i++) {\r\n            if (apuesta.tipoApuesta[i] == tipoApuesta) {\r\n                indexToDelete = i;\r\n                break;\r\n            }\r\n        }\r\n\r\n        // Elimina la direccin del array\r\n        if (indexToDelete < apuesta.tipoApuesta.length) {\r\n            // Mueve el ltimo elemento al lugar del que se va a eliminar\r\n            apuesta.tipoApuesta[indexToDelete] = apuesta.tipoApuesta[apuesta.tipoApuesta.length - 1];\r\n            apuesta.cantidades[tipoApuesta] = 0; // Establece la cantidad en 0\r\n            apuesta.tipoApuesta.pop(); // Elimina el ltimo elemento del array\r\n        }\r\n\r\n        if(tipoApuesta == PassOrNotPass.Come || tipoApuesta == PassOrNotPass.NotCome){\r\n            apuesta.puntoCraps[tipoApuesta] = 0;\r\n        }\r\n\r\n        // Elimina la direccin del array correspondiente\r\n        address payable[] memory betsAddress;\r\n\r\n        if (tipoApuesta == PassOrNotPass.PassLine || tipoApuesta == PassOrNotPass.NotPassLine) {\r\n            betsAddress = betsPassNotPassAddress;\r\n        } else if (tipoApuesta == PassOrNotPass.Come || tipoApuesta == PassOrNotPass.NotCome) {\r\n            betsAddress = betsComeNotComeAddress;\r\n        } else if (tipoApuesta == PassOrNotPass.Field) {\r\n            betsAddress = betsFieldAddress;\r\n        }\r\n\r\n        // Encuentra la posicin de la direccin en el array\r\n        uint256 indexToDeleteAddress;\r\n        for (uint256 i = 0; i < betsAddress.length; i++) {\r\n            if (betsAddress[i] == jugador) {\r\n                indexToDeleteAddress = i;\r\n                break;\r\n            }\r\n        }\r\n\r\n        // Elimina la direccin del array\r\n        if (indexToDeleteAddress < betsAddress.length) {\r\n            // Mueve el ltimo elemento al lugar del que se va a eliminar\r\n            betsAddress[indexToDeleteAddress] = betsAddress[betsAddress.length - 1];\r\n            betsAddress = eliminarUltimoElemento(betsAddress); // Elimina el ltimo elemento del array\r\n        }\r\n\r\n        // Actualiza el array de estado con las direcciones actualizadas\r\n        if (tipoApuesta == PassOrNotPass.PassLine || tipoApuesta == PassOrNotPass.NotPassLine) {\r\n         betsPassNotPassAddress = betsAddress;\r\n        } else if (tipoApuesta == PassOrNotPass.Come || tipoApuesta == PassOrNotPass.NotCome) {\r\n            betsComeNotComeAddress = betsAddress;\r\n        } else if (tipoApuesta == PassOrNotPass.Field) {\r\n         betsFieldAddress = betsAddress;\r\n        }\r\n    }\r\n\r\n// Funcin auxiliar para eliminar el ltimo elemento de un array dinmico de direcciones\r\n    function eliminarUltimoElemento(address payable[] memory array) private pure returns (address payable[] memory) {\r\n        require(array.length > 0, \"El array esta vacio\");\r\n        address payable[] memory nuevoArray = new address payable[](array.length - 1);\r\n        for (uint256 i = 0; i < array.length - 1; i++) {\r\n            nuevoArray[i] = array[i];\r\n        }\r\n        return nuevoArray;\r\n    }\r\n}",
  "sourcePath": "C:\\Users\\Ignacio Gonzalez\\dapp-casino\\smartContracts\\contracts\\Dados.sol",
  "compiler": {
    "name": "solc",
    "version": "0.8.23+commit.f704f362.Emscripten.clang"
  },
  "schemaVersion": "3.4.16",
  "updatedAt": "2023-12-03T14:07:13.662Z",
  "devdoc": {
    "kind": "dev",
    "methods": {},
    "version": 1
  },
  "userdoc": {
    "kind": "user",
    "methods": {},
    "version": 1
  }
}