{
  "contractName": "Ruleta",
  "abi": [
    {
      "inputs": [],
      "stateMutability": "payable",
      "type": "constructor"
    },
    {
      "anonymous": false,
      "inputs": [
        {
          "indexed": false,
          "internalType": "string",
          "name": "nombre",
          "type": "string"
        },
        {
          "indexed": false,
          "internalType": "uint256",
          "name": "cantidad",
          "type": "uint256"
        }
      ],
      "name": "ApuestaColorPar",
      "type": "event"
    },
    {
      "anonymous": false,
      "inputs": [
        {
          "indexed": false,
          "internalType": "string",
          "name": "apuesta",
          "type": "string"
        },
        {
          "indexed": false,
          "internalType": "address",
          "name": "jugador",
          "type": "address"
        },
        {
          "indexed": false,
          "internalType": "uint256",
          "name": "cantidad",
          "type": "uint256"
        }
      ],
      "name": "ApuestaGanadora",
      "type": "event"
    },
    {
      "anonymous": false,
      "inputs": [
        {
          "indexed": false,
          "internalType": "uint256",
          "name": "numero",
          "type": "uint256"
        },
        {
          "indexed": false,
          "internalType": "uint256",
          "name": "cantidad",
          "type": "uint256"
        }
      ],
      "name": "ApuestaNumero",
      "type": "event"
    },
    {
      "anonymous": false,
      "inputs": [
        {
          "indexed": false,
          "internalType": "uint256",
          "name": "numero",
          "type": "uint256"
        },
        {
          "indexed": false,
          "internalType": "string",
          "name": "color",
          "type": "string"
        },
        {
          "indexed": false,
          "internalType": "string",
          "name": "par",
          "type": "string"
        }
      ],
      "name": "GiroRuleta",
      "type": "event"
    },
    {
      "inputs": [],
      "name": "manager",
      "outputs": [
        {
          "internalType": "address",
          "name": "",
          "type": "address"
        }
      ],
      "stateMutability": "view",
      "type": "function"
    },
    {
      "inputs": [
        {
          "internalType": "uint8",
          "name": "num",
          "type": "uint8"
        },
        {
          "internalType": "address",
          "name": "jugador",
          "type": "address"
        }
      ],
      "name": "apuestaNumero",
      "outputs": [],
      "stateMutability": "payable",
      "type": "function"
    },
    {
      "inputs": [
        {
          "internalType": "string",
          "name": "col",
          "type": "string"
        },
        {
          "internalType": "address",
          "name": "jugador",
          "type": "address"
        }
      ],
      "name": "apuestaColor",
      "outputs": [],
      "stateMutability": "payable",
      "type": "function"
    },
    {
      "inputs": [
        {
          "internalType": "string",
          "name": "par",
          "type": "string"
        },
        {
          "internalType": "address",
          "name": "jugador",
          "type": "address"
        }
      ],
      "name": "apuestaPar",
      "outputs": [],
      "stateMutability": "payable",
      "type": "function"
    },
    {
      "inputs": [],
      "name": "girarRuleta",
      "outputs": [
        {
          "internalType": "uint256",
          "name": "",
          "type": "uint256"
        },
        {
          "internalType": "string",
          "name": "",
          "type": "string"
        },
        {
          "internalType": "string",
          "name": "",
          "type": "string"
        }
      ],
      "stateMutability": "payable",
      "type": "function"
    },
    {
      "inputs": [
        {
          "internalType": "address",
          "name": "jugador",
          "type": "address"
        }
      ],
      "name": "obtenerApuestasJugador",
      "outputs": [
        {
          "internalType": "uint256[]",
          "name": "numbers",
          "type": "uint256[]"
        },
        {
          "internalType": "uint256[]",
          "name": "cantidadesNumeros",
          "type": "uint256[]"
        },
        {
          "internalType": "string[]",
          "name": "colores",
          "type": "string[]"
        },
        {
          "internalType": "uint256[]",
          "name": "cantidadesColores",
          "type": "uint256[]"
        },
        {
          "internalType": "string[]",
          "name": "paridades",
          "type": "string[]"
        },
        {
          "internalType": "uint256[]",
          "name": "cantidadesParidades",
          "type": "uint256[]"
        }
      ],
      "stateMutability": "view",
      "type": "function"
    }
  ],
  "bytecode": "0x6080604052670429d069189e0000341015620000875760405162461bcd60e51b815260206004820152603560248201527f446562657320696e74726f647563697220302e3320657468657220706172612060448201527f646573706c6567617220656c20636f6e747261746f0000000000000000000000606482015260840160405180910390fd5b600680546301000000600160b81b03191633630100000002179055604080518082018252600080825282518084019093526005835264766572646560d81b602080850191909152820192835280546001810182559080528151600080516020620035b383398151915260029092029182019081559251919291600080516020620035d38339815191529091019062000120908262001393565b5050604080518082018252602080825282518084019093526004835263726f6a6f60e01b8382015281019182526000805460018101825590805281516002909102600080516020620035b38339815191528101918255925191935091600080516020620035d383398151915201906200019a908262001393565b5050604080518082018252600f8152815180830190925260058252646e6567726f60d81b60208381019190915281019182526000805460018101825590805281516002909102600080516020620035b38339815191528101918255925191935091600080516020620035d3833981519152019062000219908262001393565b50506040805180820182526013815281518083019092526004825263726f6a6f60e01b60208381019190915281019182526000805460018101825590805281516002909102600080516020620035b38339815191528101918255925191935091600080516020620035d3833981519152019062000297908262001393565b505060408051808201825260048152815180830190925260058252646e6567726f60d81b60208381019190915281019182526000805460018101825590805281516002909102600080516020620035b38339815191528101918255925191935091600080516020620035d3833981519152019062000316908262001393565b50506040805180820182526015815281518083019092526004825263726f6a6f60e01b60208381019190915281019182526000805460018101825590805281516002909102600080516020620035b38339815191528101918255925191935091600080516020620035d3833981519152019062000394908262001393565b50506040805180820182526002808252825180840190935260058352646e6567726f60d81b60208481019190915282019283526000805460018101825590805282519102600080516020620035b38339815191528101918255925191935091600080516020620035d3833981519152019062000411908262001393565b50506040805180820182526019815281518083019092526004825263726f6a6f60e01b60208381019190915281019182526000805460018101825590805281516002909102600080516020620035b38339815191528101918255925191935091600080516020620035d383398151915201906200048f908262001393565b505060408051808201825260118152815180830190925260058252646e6567726f60d81b60208381019190915281019182526000805460018101825590805281516002909102600080516020620035b38339815191528101918255925191935091600080516020620035d383398151915201906200050e908262001393565b50506040805180820182526022815281518083019092526004825263726f6a6f60e01b60208381019190915281019182526000805460018101825590805281516002909102600080516020620035b38339815191528101918255925191935091600080516020620035d383398151915201906200058c908262001393565b505060408051808201825260068152815180830190925260058252646e6567726f60d81b60208381019190915281019182526000805460018101825590805281516002909102600080516020620035b38339815191528101918255925191935091600080516020620035d383398151915201906200060b908262001393565b5050604080518082018252601b815281518083019092526004825263726f6a6f60e01b60208381019190915281019182526000805460018101825590805281516002909102600080516020620035b38339815191528101918255925191935091600080516020620035d3833981519152019062000689908262001393565b5050604080518082018252600d8152815180830190925260058252646e6567726f60d81b60208381019190915281019182526000805460018101825590805281516002909102600080516020620035b38339815191528101918255925191935091600080516020620035d3833981519152019062000708908262001393565b50506040805180820182526024815281518083019092526004825263726f6a6f60e01b60208381019190915281019182526000805460018101825590805281516002909102600080516020620035b38339815191528101918255925191935091600080516020620035d3833981519152019062000786908262001393565b5050604080518082018252600b8152815180830190925260058252646e6567726f60d81b60208381019190915281019182526000805460018101825590805281516002909102600080516020620035b38339815191528101918255925191935091600080516020620035d3833981519152019062000805908262001393565b5050604080518082018252601e815281518083019092526004825263726f6a6f60e01b60208381019190915281019182526000805460018101825590805281516002909102600080516020620035b38339815191528101918255925191935091600080516020620035d3833981519152019062000883908262001393565b505060408051808201825260088152815180830190925260058252646e6567726f60d81b60208381019190915281019182526000805460018101825590805281516002909102600080516020620035b38339815191528101918255925191935091600080516020620035d3833981519152019062000902908262001393565b50506040805180820182526017815281518083019092526004825263726f6a6f60e01b60208381019190915281019182526000805460018101825590805281516002909102600080516020620035b38339815191528101918255925191935091600080516020620035d3833981519152019062000980908262001393565b5050604080518082018252600a8152815180830190925260058252646e6567726f60d81b60208381019190915281019182526000805460018101825590805281516002909102600080516020620035b38339815191528101918255925191935091600080516020620035d38339815191520190620009ff908262001393565b50506040805180820182526005815281518083019092526004825263726f6a6f60e01b60208381019190915281019182526000805460018101825590805281516002909102600080516020620035b38339815191528101918255925191935091600080516020620035d3833981519152019062000a7d908262001393565b505060408051808201825260188152815180830190925260058252646e6567726f60d81b60208381019190915281019182526000805460018101825590805281516002909102600080516020620035b38339815191528101918255925191935091600080516020620035d3833981519152019062000afc908262001393565b50506040805180820182526010815281518083019092526004825263726f6a6f60e01b60208381019190915281019182526000805460018101825590805281516002909102600080516020620035b38339815191528101918255925191935091600080516020620035d3833981519152019062000b7a908262001393565b505060408051808201825260218152815180830190925260058252646e6567726f60d81b60208381019190915281019182526000805460018101825590805281516002909102600080516020620035b38339815191528101918255925191935091600080516020620035d3833981519152019062000bf9908262001393565b5050604080518082018252600180825282518084019093526004835263726f6a6f60e01b6020848101919091528201928352600080549182018155805281516002909102600080516020620035b38339815191528101918255925191935091600080516020620035d3833981519152019062000c76908262001393565b505060408051808201825260148152815180830190925260058252646e6567726f60d81b60208381019190915281019182526000805460018101825590805281516002909102600080516020620035b38339815191528101918255925191935091600080516020620035d3833981519152019062000cf5908262001393565b5050604080518082018252600e815281518083019092526004825263726f6a6f60e01b60208381019190915281019182526000805460018101825590805281516002909102600080516020620035b38339815191528101918255925191935091600080516020620035d3833981519152019062000d73908262001393565b5050604080518082018252601f8152815180830190925260058252646e6567726f60d81b60208381019190915281019182526000805460018101825590805281516002909102600080516020620035b38339815191528101918255925191935091600080516020620035d3833981519152019062000df2908262001393565b50506040805180820182526009815281518083019092526004825263726f6a6f60e01b60208381019190915281019182526000805460018101825590805281516002909102600080516020620035b38339815191528101918255925191935091600080516020620035d3833981519152019062000e70908262001393565b505060408051808201825260168152815180830190925260058252646e6567726f60d81b60208381019190915281019182526000805460018101825590805281516002909102600080516020620035b38339815191528101918255925191935091600080516020620035d3833981519152019062000eef908262001393565b50506040805180820182526012815281518083019092526004825263726f6a6f60e01b60208381019190915281019182526000805460018101825590805281516002909102600080516020620035b38339815191528101918255925191935091600080516020620035d3833981519152019062000f6d908262001393565b5050604080518082018252601d8152815180830190925260058252646e6567726f60d81b60208381019190915281019182526000805460018101825590805281516002909102600080516020620035b38339815191528101918255925191935091600080516020620035d3833981519152019062000fec908262001393565b50506040805180820182526007815281518083019092526004825263726f6a6f60e01b60208381019190915281019182526000805460018101825590805281516002909102600080516020620035b38339815191528101918255925191935091600080516020620035d383398151915201906200106a908262001393565b5050604080518082018252601c8152815180830190925260058252646e6567726f60d81b60208381019190915281019182526000805460018101825590805281516002909102600080516020620035b38339815191528101918255925191935091600080516020620035d38339815191520190620010e9908262001393565b5050604080518082018252600c815281518083019092526004825263726f6a6f60e01b60208381019190915281019182526000805460018101825590805281516002909102600080516020620035b38339815191528101918255925191935091600080516020620035d3833981519152019062001167908262001393565b505060408051808201825260238152815180830190925260058252646e6567726f60d81b60208381019190915281019182526000805460018101825590805281516002909102600080516020620035b38339815191528101918255925191935091600080516020620035d38339815191520190620011e6908262001393565b50506040805180820182526003815281518083019092526004825263726f6a6f60e01b60208381019190915281019182526000805460018101825590805281516002909102600080516020620035b38339815191528101918255925191935091600080516020620035d3833981519152019062001264908262001393565b5050604080518082018252601a8152815180830190925260058252646e6567726f60d81b60208381019190915281019182526000805460018101825590805281516002909102600080516020620035b38339815191528101918255925191935091600080516020620035d38339815191520190620012e3908262001393565b5050506200145f565b634e487b7160e01b600052604160045260246000fd5b600181811c908216806200131757607f821691505b6020821081036200133857634e487b7160e01b600052602260045260246000fd5b50919050565b601f8211156200138e576000816000526020600020601f850160051c81016020861015620013695750805b601f850160051c820191505b818110156200138a5782815560010162001375565b5050505b505050565b81516001600160401b03811115620013af57620013af620012ec565b620013c781620013c0845462001302565b846200133e565b602080601f831160018114620013ff5760008415620013e65750858301515b600019600386901b1c1916600185901b1785556200138a565b600085815260208120601f198616915b8281101562001430578886015182559484019460019091019084016200140f565b50858210156200144f5787850151600019600388901b60f8161c191681555b5050505050600190811b01905550565b612144806200146f6000396000f3fe6080604052600436106100555760003560e01c80630dcb20841461005a5780631fa8fd6c1461006f5780632001a9e51461008f578063481c6a75146100a2578063bc28d395146100e1578063fd3c37c8146100f4575b600080fd5b61006d610068366004611a60565b610126565b005b610077610558565b60405161008693929190611b72565b60405180910390f35b61006d61009d366004611a60565b610e52565b3480156100ae57600080fd5b506006546100c990630100000090046001600160a01b031681565b6040516001600160a01b039091168152602001610086565b61006d6100ef366004611ba7565b611275565b34801561010057600080fd5b5061011461010f366004611bd9565b611520565b60405161008696959493929190611c91565b6000341161014f5760405162461bcd60e51b815260040161014690611d13565b60405180910390fd5b6103e83411156101715760405162461bcd60e51b815260040161014690611d4a565b60405163726f6a6f60e01b602082015260240160405160208183030381529060405280519060200120826040516020016101ab9190611d81565b60405160208183030381529060405280519060200120148061021b5750604051646e6567726f60d81b602082015260250160405160208183030381529060405280519060200120826040516020016102039190611d81565b60405160208183030381529060405280519060200120145b6102675760405162461bcd60e51b815260206004820152601e60248201527f456c20636f6c6f7220646562652073657220726f6a6f206f206e6567726f00006044820152606401610146565b6001600160a01b03811660009081526003602052604081205490036102ec576001600160a01b0381166000908152600360209081526040822080546001810182559083529120016102b88382611e28565b506001600160a01b038116600090815260036020908152604082206001908101805491820181558352912034910155610460565b6000805b6001600160a01b0383166000908152600360205260409020548110156103f657836040516020016103219190611d81565b60408051601f1981840301815291815281516020928301206001600160a01b03861660009081526003909352912080548390811061036157610361611ee8565b9060005260206000200160405160200161037b9190611efe565b60405160208183030381529060405280519060200120036103ee576001600160a01b03831660009081526003602052604090206001018054349190839081106103c6576103c6611ee8565b9060005260206000200160008282546103df9190611f8a565b90915550600192506103f69050565b6001016102f0565b508061045e576001600160a01b03821660009081526003602090815260408220805460018101825590835291200161042e8482611e28565b506001600160a01b0382166000908152600360209081526040822060019081018054918201815583529120349101555b505b6001600160a01b03811660009081526005602052604090205460ff166104e4576004805460018082019092557f8a35acfbc15ff81a39ae7d344fd709f28e8600b4aa8c65c6b64bfe7fe36bd19b0180546001600160a01b0319166001600160a01b0384169081179091556000908152600560205260409020805460ff191690911790555b6001600660018282829054906101000a900460ff166105039190611f9d565b92506101000a81548160ff021916908360ff1602179055507f1247de0c932d46e4855d8df41a7081d010c7fc2dd3f23aa3a1bb9d5890204bfe823460405161054c929190611fb6565b60405180910390a15050565b600654600090606090819060ff1615158061057c5750600654610100900460ff1615155b80610591575060065462010000900460ff1615155b6105eb5760405162461bcd60e51b815260206004820152602560248201527f446562652068616265727365207265616c697a61646f20616c67756e61206170604482015264756573746160d81b6064820152608401610146565b600080546040516106059044904290600490602001611fd8565b6040516020818303038152906040528051906020012060001c610628919061202a565b905060006106596000838154811061064257610642611ee8565b9060005260206000209060020201600001546118c6565b90507fef1b9639bc5d0d4bdea0e9b20d8d782ba77f649dc9a043c846f92c94dd36f1ba6000838154811061068f5761068f611ee8565b906000526020600020906002020160000154600084815481106106b4576106b4611ee8565b9060005260206000209060020201600101836040516106d59392919061204c565b60405180910390a160005b600454811015610d44576000600482815481106106ff576106ff611ee8565b60009182526020822001546001600160a01b03169150805b6001600160a01b0383166000908152600160205260409020548110156108a7576000868154811061074a5761074a611ee8565b600091825260208083206002909202909101546001600160a01b03861683526001909152604090912080548390811061078557610785611ee8565b90600052602060002001540361089f576001600160a01b0383166000908152600160208190526040909120018054829081106107c3576107c3611ee8565b906000526020600020015460246107da91906120f7565b6107e49083611f8a565b91507fb8bcde7b448d27138588e7b812f4d4a896a75c29882ce116e13924db6076a82d8360016000866001600160a01b03166001600160a01b03168152602001908152602001600020600101838154811061084157610841611ee8565b9060005260206000200154602461085891906120f7565b6040805160608082526010908201526f617075657374612061206e756d65726f60801b60808201526001600160a01b03909316602084015282015260a00160405180910390a15b600101610717565b5060005b6001600160a01b038316600090815260036020526040902054811015610a8457600086815481106108de576108de611ee8565b90600052602060002090600202016001016040516020016108ff9190611efe565b60408051601f1981840301815291815281516020928301206001600160a01b03861660009081526003909352912080548390811061093f5761093f611ee8565b906000526020600020016040516020016109599190611efe565b6040516020818303038152906040528051906020012003610a7c576001600160a01b03831660009081526003602052604090206001018054829081106109a1576109a1611ee8565b906000526020600020015460026109b891906120f7565b6109c29083611f8a565b91507fb8bcde7b448d27138588e7b812f4d4a896a75c29882ce116e13924db6076a82d8360036000866001600160a01b03166001600160a01b031681526020019081526020016000206001018381548110610a1f57610a1f611ee8565b90600052602060002001546002610a3691906120f7565b604080516060808252600f908201526e30b83ab2b9ba3090309031b7b637b960891b60808201526001600160a01b03909316602084015282015260a00160405180910390a15b6001016108ab565b5060005b6001600160a01b038316600090815260026020526040902054811015610c445784604051602001610ab99190611d81565b60408051601f1981840301815291815281516020928301206001600160a01b038616600090815260029093529120805483908110610af957610af9611ee8565b90600052602060002001604051602001610b139190611efe565b6040516020818303038152906040528051906020012003610c3c576001600160a01b0383166000908152600260205260409020600101805482908110610b5b57610b5b611ee8565b90600052602060002001546002610b7291906120f7565b610b7c9083611f8a565b91507fb8bcde7b448d27138588e7b812f4d4a896a75c29882ce116e13924db6076a82d8360026000866001600160a01b03166001600160a01b031681526020019081526020016000206001018381548110610bd957610bd9611ee8565b90600052602060002001546002610bf091906120f7565b6040805160608082526015908201527420b83ab2b9ba309030903830b910379034b6b830b960591b60808201526001600160a01b03909316602084015282015260a00160405180910390a15b600101610a88565b508015610c83576040516001600160a01b0383169082156108fc029083906000818181858888f19350505050158015610c81573d6000803e3d6000fd5b505b6001600160a01b038216600090815260016020526040812090610ca6828261191e565b610cb460018301600061191e565b50506001600160a01b038216600090815260036020526040812090610cd9828261193f565b610ce760018301600061191e565b50506001600160a01b038216600090815260026020526040812090610d0c828261193f565b610d1a60018301600061191e565b5050506001600160a01b03166000908152600560205260409020805460ff191690556001016106e0565b506006805462ffffff191690556040805160008152602081019182905251610d6e9160049161195d565b5060008281548110610d8257610d82611ee8565b90600052602060002090600202016000015460008381548110610da757610da7611ee8565b906000526020600020906002020160010182818054610dc590611d9d565b80601f0160208091040260200160405190810160405280929190818152602001828054610df190611d9d565b8015610e3e5780601f10610e1357610100808354040283529160200191610e3e565b820191906000526020600020905b815481529060010190602001808311610e2157829003601f168201915b505050505091509450945094505050909192565b60003411610e725760405162461bcd60e51b815260040161014690611d13565b6103e8341115610e945760405162461bcd60e51b815260040161014690611d4a565b604051623830b960e91b60208201526023016040516020818303038152906040528051906020012082604051602001610ecd9190611d81565b604051602081830303815290604052805190602001201480610f3d57506040516434b6b830b960d91b60208201526025016040516020818303038152906040528051906020012082604051602001610f259190611d81565b60405160208183030381529060405280519060200120145b610f775760405162461bcd60e51b815260206004820152600b60248201526a3830b910379034b6b830b960a91b6044820152606401610146565b6001600160a01b0381166000908152600260205260408120549003610ffc576001600160a01b038116600090815260026020908152604082208054600181018255908352912001610fc88382611e28565b506001600160a01b0381166000908152600260209081526040822060019081018054918201815583529120349101556111d2565b60005b6001600160a01b0382166000908152600260205260409020548110156111d057826040516020016110309190611d81565b60408051601f1981840301815291815281516020928301206001600160a01b03851660009081526002909352912080548390811061107057611070611ee8565b9060005260206000200160405160200161108a9190611efe565b6040516020818303038152906040528051906020012003611166576001600160a01b0382166000908152600260205260409020600101805434918291849081106110d6576110d6611ee8565b9060005260206000200160008282546110ef9190611f8a565b91829055506110ff915082611f8a565b90506103e881106111605760405162461bcd60e51b815260206004820152602560248201527f4c6120617075657374612073757065726120656c206c696d697465207065726d604482015264697469646f60d81b6064820152608401610146565b506111c8565b6001600160a01b0382166000908152600260209081526040822080546001810182559083529120016111988482611e28565b506001600160a01b0382166000908152600260209081526040822060019081018054918201815583529120349101555b600101610fff565b505b6001600160a01b03811660009081526005602052604090205460ff16611256576004805460018082019092557f8a35acfbc15ff81a39ae7d344fd709f28e8600b4aa8c65c6b64bfe7fe36bd19b0180546001600160a01b0319166001600160a01b0384169081179091556000908152600560205260409020805460ff191690911790555b6001600660028282829054906101000a900460ff166105039190611f9d565b600034116112955760405162461bcd60e51b815260040161014690611d13565b6103e83411156112b75760405162461bcd60e51b815260040161014690611d4a565b60258260ff161061130a5760405162461bcd60e51b815260206004820152601f60248201527f446562652073657220756e206e756d65726f20656e74726520302079203336006044820152606401610146565b6000805b6001600160a01b0383166000908152600160205260409020548110156113d8576001600160a01b0383166000908152600160205260409020805460ff861691908390811061135e5761135e611ee8565b9060005260206000200154036113d0573460016000856001600160a01b03166001600160a01b0316815260200190815260200160002060010182815481106113a8576113a8611ee8565b9060005260206000200160008282546113c19190611f8a565b90915550600192506113d89050565b60010161130e565b508061141f576001600160a01b038216600090815260016020818152604083208054808401825581855282852060ff89169101558201805492830181558352909120349101555b6001600160a01b03821660009081526005602052604090205460ff166114a3576004805460018082019092557f8a35acfbc15ff81a39ae7d344fd709f28e8600b4aa8c65c6b64bfe7fe36bd19b0180546001600160a01b0319166001600160a01b0385169081179091556000908152600560205260409020805460ff191690911790555b60068054600191906000906114bc90849060ff16611f9d565b92506101000a81548160ff021916908360ff1602179055507f1bd536b6ef5b0a1b8caacf75f2d17e335d780fc950bb4e418eb92a8226fc43a6833460405161151392919060ff929092168252602082015260400190565b60405180910390a1505050565b60608060608060608060016000886001600160a01b03166001600160a01b0316815260200190815260200160002060000180548060200260200160405190810160405280929190818152602001828054801561159b57602002820191906000526020600020905b815481526020019060010190808311611587575b5050505050955060016000886001600160a01b03166001600160a01b0316815260200190815260200160002060010180548060200260200160405190810160405280929190818152602001828054801561161457602002820191906000526020600020905b815481526020019060010190808311611600575b5050506001600160a01b038a1660009081526003602090815260408083208054825181850281018501909352808352969b509095909450925084015b828210156116fc57838290600052602060002001805461166f90611d9d565b80601f016020809104026020016040519081016040528092919081815260200182805461169b90611d9d565b80156116e85780601f106116bd576101008083540402835291602001916116e8565b820191906000526020600020905b8154815290600101906020018083116116cb57829003601f168201915b505050505081526020019060010190611650565b505050506001600160a01b038816600090815260036020908152604091829020600101805483518184028101840190945280845293975091929083018282801561176557602002820191906000526020600020905b815481526020019060010190808311611751575b5050506001600160a01b038a16600090815260026020908152604080832080548251818502810185019093528083529699509095909450925084015b8282101561184d5783829060005260206000200180546117c090611d9d565b80601f01602080910402602001604051908101604052809291908181526020018280546117ec90611d9d565b80156118395780601f1061180e57610100808354040283529160200191611839565b820191906000526020600020905b81548152906001019060200180831161181c57829003601f168201915b5050505050815260200190600101906117a1565b505050506001600160a01b03881660009081526002602090815260409182902060010180548351818402810184019094528084529395509192908301828280156118b657602002820191906000526020600020905b8154815260200190600101908083116118a2575b5050505050905091939550919395565b60606118d360028361202a565b156118fb576040518060400160405280600581526020016434b6b830b960d91b815250611918565b604051806040016040528060038152602001623830b960e91b8152505b92915050565b508054600082559060005260206000209081019061193c91906119c2565b50565b508054600082559060005260206000209081019061193c91906119d7565b8280548282559060005260206000209081019282156119b2579160200282015b828111156119b257825182546001600160a01b0319166001600160a01b0390911617825560209092019160019091019061197d565b506119be9291506119c2565b5090565b5b808211156119be57600081556001016119c3565b808211156119be5760006119eb82826119f4565b506001016119d7565b508054611a0090611d9d565b6000825580601f10611a10575050565b601f01602090049060005260206000209081019061193c91906119c2565b634e487b7160e01b600052604160045260246000fd5b80356001600160a01b0381168114611a5b57600080fd5b919050565b60008060408385031215611a7357600080fd5b823567ffffffffffffffff80821115611a8b57600080fd5b818501915085601f830112611a9f57600080fd5b813581811115611ab157611ab1611a2e565b604051601f8201601f19908116603f01168101908382118183101715611ad957611ad9611a2e565b81604052828152886020848701011115611af257600080fd5b826020860160208301376000602084830101528096505050505050611b1960208401611a44565b90509250929050565b60005b83811015611b3d578181015183820152602001611b25565b50506000910152565b60008151808452611b5e816020860160208601611b22565b601f01601f19169290920160200192915050565b838152606060208201526000611b8b6060830185611b46565b8281036040840152611b9d8185611b46565b9695505050505050565b60008060408385031215611bba57600080fd5b823560ff81168114611bcb57600080fd5b9150611b1960208401611a44565b600060208284031215611beb57600080fd5b611bf482611a44565b9392505050565b60008151808452602080850194506020840160005b83811015611c2c57815187529582019590820190600101611c10565b509495945050505050565b60008282518085526020808601955060208260051b8401016020860160005b84811015611c8457601f19868403018952611c72838351611b46565b98840198925090830190600101611c56565b5090979650505050505050565b60c081526000611ca460c0830189611bfb565b8281036020840152611cb68189611bfb565b90508281036040840152611cca8188611c37565b90508281036060840152611cde8187611bfb565b90508281036080840152611cf28186611c37565b905082810360a0840152611d068185611bfb565b9998505050505050505050565b6020808252601a908201527f44656265732061706f7374617220756e612063616e7469646164000000000000604082015260600190565b60208082526017908201527f41707565737461206d6178696d61203130303020576569000000000000000000604082015260600190565b60008251611d93818460208701611b22565b9190910192915050565b600181811c90821680611db157607f821691505b602082108103611dd157634e487b7160e01b600052602260045260246000fd5b50919050565b601f821115611e23576000816000526020600020601f850160051c81016020861015611e005750805b601f850160051c820191505b81811015611e1f57828155600101611e0c565b5050505b505050565b815167ffffffffffffffff811115611e4257611e42611a2e565b611e5681611e508454611d9d565b84611dd7565b602080601f831160018114611e8b5760008415611e735750858301515b600019600386901b1c1916600185901b178555611e1f565b600085815260208120601f198616915b82811015611eba57888601518255948401946001909101908401611e9b565b5085821015611ed85787850151600019600388901b60f8161c191681555b5050505050600190811b01905550565b634e487b7160e01b600052603260045260246000fd5b6000808354611f0c81611d9d565b60018281168015611f245760018114611f3957611f68565b60ff1984168752821515830287019450611f68565b8760005260208060002060005b85811015611f5f5781548a820152908401908201611f46565b50505082870194505b50929695505050505050565b634e487b7160e01b600052601160045260246000fd5b8082018082111561191857611918611f74565b60ff818116838216019081111561191857611918611f74565b604081526000611fc96040830185611b46565b90508260208301529392505050565b8381526000602084602084015260408301845485600052602060002060005b8281101561201c5781546001600160a01b031684529284019260019182019101611ff7565b509198975050505050505050565b60008261204757634e487b7160e01b600052601260045260246000fd5b500690565b83815260006020606060208401526000855461206781611d9d565b806060870152608060018084166000811461208957600181146120a5576120d5565b60ff19851660808a0152608084151560051b8a010195506120d5565b8a600052602060002060005b858110156120cc5781548b82018601529083019088016120b1565b8a016080019650505b505050505083810360408501526120ec8186611b46565b979650505050505050565b808202811582820484141761191857611918611f7456fea2646970667358221220f749b929d2d681977a7034bdf826237b1d0662da73b5d7fe96a71a7c4608d1d864736f6c63430008170033290decd9548b62a8d60345a988386fc84ba6bc95484008f6362f93160ef3e563290decd9548b62a8d60345a988386fc84ba6bc95484008f6362f93160ef3e564",
  "immutableReferences": {},
  "source": "// SPDX-License-Identifier: GPL-3.0\r\n\r\npragma solidity >=0.7.0 <0.9.0;\r\n\r\ncontract Ruleta {\r\n    struct Numero {\r\n        uint256 numero;\r\n        string color;\r\n    }\r\n\r\n    struct ApuestaNums {\r\n        uint256[] numero;\r\n        uint[] cantidad;\r\n    }\r\n\r\n    struct ApuestaPar {\r\n        string[] paridad;\r\n        uint[] cantidad;\r\n    }\r\n\r\n    struct ApuestaColor {\r\n        string[] color;\r\n        uint[] cantidad;\r\n    }\r\n\r\n    Numero[] private numeros;\r\n\r\n    mapping(address => ApuestaNums) private BetsNum;\r\n    mapping(address => ApuestaPar) private BetsPar;\r\n    mapping(address => ApuestaColor) private BetsColor;\r\n\r\n    address payable[] private jugadores; //Array con las address de los jugadores que apuestan\r\n    mapping(address => bool) private apuestaJugador; //Para controlar si el jugador ya ha apostado\r\n\r\n    uint8 private numApuestas;\r\n    uint8 private colorApuestas;\r\n    uint8 private parApuestas;\r\n\r\n    address public manager;\r\n\r\n    modifier validarApuesta() {\r\n        require(msg.value > 0, \"Debes apostar una cantidad\");\r\n        require(msg.value <= 1000, \"Apuesta maxima 1000 Wei\");\r\n        _;\r\n    }\r\n\r\n    constructor() payable {\r\n        require(\r\n            msg.value >= 0.3 ether,\r\n            \"Debes introducir 0.3 ether para desplegar el contrato\"\r\n        );\r\n        manager = msg.sender;\r\n        numeros.push(Numero(0, \"verde\"));\r\n        numeros.push(Numero(32, \"rojo\"));\r\n        numeros.push(Numero(15, \"negro\"));\r\n        numeros.push(Numero(19, \"rojo\"));\r\n        numeros.push(Numero(4, \"negro\"));\r\n        numeros.push(Numero(21, \"rojo\"));\r\n        numeros.push(Numero(2, \"negro\"));\r\n        numeros.push(Numero(25, \"rojo\"));\r\n        numeros.push(Numero(17, \"negro\"));\r\n        numeros.push(Numero(34, \"rojo\"));\r\n        numeros.push(Numero(6, \"negro\"));\r\n        numeros.push(Numero(27, \"rojo\"));\r\n        numeros.push(Numero(13, \"negro\"));\r\n        numeros.push(Numero(36, \"rojo\"));\r\n        numeros.push(Numero(11, \"negro\"));\r\n        numeros.push(Numero(30, \"rojo\"));\r\n        numeros.push(Numero(8, \"negro\"));\r\n        numeros.push(Numero(23, \"rojo\"));\r\n        numeros.push(Numero(10, \"negro\"));\r\n        numeros.push(Numero(5, \"rojo\"));\r\n        numeros.push(Numero(24, \"negro\"));\r\n        numeros.push(Numero(16, \"rojo\"));\r\n        numeros.push(Numero(33, \"negro\"));\r\n        numeros.push(Numero(1, \"rojo\"));\r\n        numeros.push(Numero(20, \"negro\"));\r\n        numeros.push(Numero(14, \"rojo\"));\r\n        numeros.push(Numero(31, \"negro\"));\r\n        numeros.push(Numero(9, \"rojo\"));\r\n        numeros.push(Numero(22, \"negro\"));\r\n        numeros.push(Numero(18, \"rojo\"));\r\n        numeros.push(Numero(29, \"negro\"));\r\n        numeros.push(Numero(7, \"rojo\"));\r\n        numeros.push(Numero(28, \"negro\"));\r\n        numeros.push(Numero(12, \"rojo\"));\r\n        numeros.push(Numero(35, \"negro\"));\r\n        numeros.push(Numero(3, \"rojo\"));\r\n        numeros.push(Numero(26, \"negro\"));\r\n    }\r\n\r\n    event GiroRuleta(uint256 numero, string color, string par);\r\n    event ApuestaNumero(uint256 numero, uint cantidad);\r\n    event ApuestaColorPar(string nombre, uint cantidad);\r\n    event ApuestaGanadora(string apuesta, address jugador, uint cantidad);\r\n\r\n    function Paridad(uint256 num) private pure returns (string memory) {\r\n        return num % 2 == 0 ? \"par\" : \"impar\";\r\n    }\r\n\r\n    function apuestaNumero(\r\n        uint8 num,\r\n        address jugador\r\n    ) public payable validarApuesta {\r\n        require(num < 37, \"Debe ser un numero entre 0 y 36\");\r\n\r\n        bool existeApuesta = false;\r\n\r\n        for (uint i = 0; i < BetsNum[jugador].numero.length; i++) {\r\n            if (BetsNum[jugador].numero[i] == num) {\r\n                // Si ya ha apostado a este nmero, actualiza la cantidad apostada\r\n                BetsNum[jugador].cantidad[i] += msg.value;\r\n                existeApuesta = true;\r\n                break;\r\n            }\r\n        }\r\n\r\n        if (!existeApuesta) {\r\n            // Si no ha apostado a este nmero, agrega una nueva apuesta\r\n            BetsNum[jugador].numero.push(num);\r\n            BetsNum[jugador].cantidad.push(msg.value);\r\n        }\r\n\r\n        // Si es la primera apuesta del jugador, agrgalo a la lista de jugadores\r\n        if (!apuestaJugador[jugador]) {\r\n            jugadores.push(payable(jugador));\r\n            apuestaJugador[jugador] = true;\r\n        }\r\n\r\n        numApuestas += 1;\r\n        emit ApuestaNumero(num, msg.value);\r\n    }\r\n\r\n    function apuestaColor(\r\n        string memory col,\r\n        address jugador\r\n    ) public payable validarApuesta {\r\n        require(\r\n            keccak256(abi.encodePacked(col)) ==\r\n                keccak256(abi.encodePacked(\"rojo\")) ||\r\n                keccak256(abi.encodePacked(col)) ==\r\n                keccak256(abi.encodePacked(\"negro\")),\r\n            \"El color debe ser rojo o negro\"\r\n        );\r\n\r\n        if (BetsColor[jugador].color.length == 0) {\r\n            BetsColor[jugador].color.push(col);\r\n            BetsColor[jugador].cantidad.push(msg.value);\r\n        } else {\r\n            bool encontrada = false;\r\n            for (uint i = 0; i < BetsColor[jugador].color.length; i++) {\r\n                if (\r\n                    keccak256(abi.encodePacked(BetsColor[jugador].color[i])) ==\r\n                    keccak256(abi.encodePacked(col))\r\n                ) {\r\n                    BetsColor[jugador].cantidad[i] += msg.value;\r\n                    encontrada = true;\r\n                    break;\r\n                }\r\n            }\r\n\r\n            if (!encontrada) {\r\n                BetsColor[jugador].color.push(col);\r\n                BetsColor[jugador].cantidad.push(msg.value);\r\n            }\r\n        }\r\n\r\n        if (!apuestaJugador[jugador]) {\r\n            jugadores.push(payable(jugador));\r\n            apuestaJugador[jugador] = true;\r\n        }\r\n\r\n        colorApuestas += 1;\r\n        emit ApuestaColorPar(col, msg.value);\r\n    }\r\n\r\n    function apuestaPar(\r\n        string memory par,\r\n        address jugador\r\n    ) public payable validarApuesta {\r\n        require(\r\n            keccak256(abi.encodePacked(par)) ==\r\n                keccak256(abi.encodePacked(\"par\")) ||\r\n                keccak256(abi.encodePacked(par)) ==\r\n                keccak256(abi.encodePacked(\"impar\")),\r\n            \"par o impar\"\r\n        );\r\n\r\n        if (BetsPar[jugador].paridad.length == 0) {\r\n            BetsPar[jugador].paridad.push(par);\r\n            BetsPar[jugador].cantidad.push(msg.value);\r\n        } else {\r\n            for (uint i = 0; i < BetsPar[jugador].paridad.length; i++) {\r\n                if (\r\n                    keccak256(abi.encodePacked(BetsPar[jugador].paridad[i])) ==\r\n                    keccak256(abi.encodePacked(par))\r\n                ) {\r\n                    uint256 totalApuesta = msg.value;\r\n                    totalApuesta += BetsPar[jugador].cantidad[i] += msg.value;\r\n                    require(\r\n                        totalApuesta < 1000,\r\n                        \"La apuesta supera el limite permitido\"\r\n                    );\r\n                } else {\r\n                    BetsPar[jugador].paridad.push(par);\r\n                    BetsPar[jugador].cantidad.push(msg.value);\r\n                }\r\n            }\r\n        }\r\n\r\n        if (!apuestaJugador[jugador]) {\r\n            jugadores.push(payable(jugador));\r\n            apuestaJugador[jugador] = true;\r\n        }\r\n        parApuestas += 1;\r\n        emit ApuestaColorPar(par, msg.value);\r\n    }\r\n\r\n    function girarRuleta()\r\n        public\r\n        payable\r\n        returns (uint256, string memory, string memory)\r\n    {\r\n        require(\r\n            numApuestas > 0 || colorApuestas > 0 || parApuestas > 0,\r\n            \"Debe haberse realizado alguna apuesta\"\r\n        );\r\n        uint256 indice = uint256(\r\n            keccak256(\r\n                abi.encodePacked(block.difficulty, block.timestamp, jugadores)\r\n            )\r\n        ) % numeros.length;\r\n        string memory par = Paridad(numeros[indice].numero);\r\n\r\n        emit GiroRuleta(numeros[indice].numero, numeros[indice].color, par);\r\n\r\n        for (uint i = 0; i < jugadores.length; i++) {\r\n            address payable jugadorAddress = jugadores[i];\r\n\r\n            // Almacena las apuestas ganadoras para este jugador\r\n            uint256 ganancias = 0;\r\n\r\n            for (uint j = 0; j < BetsNum[jugadorAddress].numero.length; j++) {\r\n                if (\r\n                    BetsNum[jugadorAddress].numero[j] == numeros[indice].numero\r\n                ) {\r\n                    ganancias += BetsNum[jugadorAddress].cantidad[j] * 36;\r\n                    emit ApuestaGanadora(\r\n                        \"apuesta a numero\",\r\n                        jugadorAddress,\r\n                        BetsNum[jugadorAddress].cantidad[j] * 36\r\n                    );\r\n                }\r\n            }\r\n\r\n            for (uint k = 0; k < BetsColor[jugadorAddress].color.length; k++) {\r\n                if (\r\n                    keccak256(\r\n                        abi.encodePacked(BetsColor[jugadorAddress].color[k])\r\n                    ) == keccak256(abi.encodePacked(numeros[indice].color))\r\n                ) {\r\n                    ganancias += BetsColor[jugadorAddress].cantidad[k] * 2;\r\n                    emit ApuestaGanadora(\r\n                        \"apuesta a color\",\r\n                        jugadorAddress,\r\n                        BetsColor[jugadorAddress].cantidad[k] * 2\r\n                    );\r\n                }\r\n            }\r\n\r\n            for (uint l = 0; l < BetsPar[jugadorAddress].paridad.length; l++) {\r\n                if (\r\n                    keccak256(\r\n                        abi.encodePacked(BetsPar[jugadorAddress].paridad[l])\r\n                    ) == keccak256(abi.encodePacked(par))\r\n                ) {\r\n                    ganancias += BetsPar[jugadorAddress].cantidad[l] * 2;\r\n                    emit ApuestaGanadora(\r\n                        \"Apuesta a par o impar\",\r\n                        jugadorAddress,\r\n                        BetsPar[jugadorAddress].cantidad[l] * 2\r\n                    );\r\n                }\r\n            }\r\n\r\n            // Realiza el pago de las ganancias al jugador\r\n            if (ganancias > 0) {\r\n                jugadorAddress.transfer(ganancias);\r\n            }\r\n\r\n            // Elimina las apuestas para este jugador\r\n            delete BetsNum[jugadorAddress];\r\n            delete BetsColor[jugadorAddress];\r\n            delete BetsPar[jugadorAddress];\r\n            apuestaJugador[jugadorAddress] = false;\r\n        }\r\n\r\n        // Restablece los contadores de apuestas despus del bucle\r\n        numApuestas = 0;\r\n        colorApuestas = 0;\r\n        parApuestas = 0;\r\n\r\n        // Restablece la lista de jugadores despus de procesar todos\r\n        jugadores = new address payable[](0);\r\n\r\n        return (numeros[indice].numero, numeros[indice].color, par);\r\n    }\r\n\r\n    // Funcin para obtener todas las apuestas de un jugador\r\n    function obtenerApuestasJugador(\r\n        address jugador\r\n    )\r\n        external\r\n        view\r\n        returns (\r\n            uint256[] memory numbers,\r\n            uint[] memory cantidadesNumeros,\r\n            string[] memory colores,\r\n            uint[] memory cantidadesColores,\r\n            string[] memory paridades,\r\n            uint[] memory cantidadesParidades\r\n        )\r\n    {\r\n        numbers = BetsNum[jugador].numero;\r\n        cantidadesNumeros = BetsNum[jugador].cantidad;\r\n\r\n        colores = BetsColor[jugador].color;\r\n        cantidadesColores = BetsColor[jugador].cantidad;\r\n\r\n        paridades = BetsPar[jugador].paridad;\r\n        cantidadesParidades = BetsPar[jugador].cantidad;\r\n    }\r\n}\r\n",
  "sourcePath": "C:\\Users\\Ignacio Gonzalez\\dapp-casino\\smartContracts\\contracts\\Ruleta.sol",
  "compiler": {
    "name": "solc",
    "version": "0.8.23+commit.f704f362.Emscripten.clang"
  },
  "schemaVersion": "3.4.16",
  "updatedAt": "2023-12-03T14:07:13.683Z",
  "devdoc": {
    "kind": "dev",
    "methods": {},
    "version": 1
  },
  "userdoc": {
    "kind": "user",
    "methods": {},
    "version": 1
  }
}